{
  "_format": "hh-sol-artifact-1",
  "contractName": "Cert",
  "sourceName": "contracts/certi.sol",
  "abi": [
    {
      "inputs": [
        {
          "internalType": "address",
          "name": "initialOwner",
          "type": "address"
        }
      ],
      "stateMutability": "nonpayable",
      "type": "constructor"
    },
    {
      "inputs": [
        {
          "internalType": "address",
          "name": "owner",
          "type": "address"
        }
      ],
      "name": "OwnableInvalidOwner",
      "type": "error"
    },
    {
      "inputs": [
        {
          "internalType": "address",
          "name": "account",
          "type": "address"
        }
      ],
      "name": "OwnableUnauthorizedAccount",
      "type": "error"
    },
    {
      "anonymous": false,
      "inputs": [
        {
          "indexed": true,
          "internalType": "address",
          "name": "previousOwner",
          "type": "address"
        },
        {
          "indexed": true,
          "internalType": "address",
          "name": "newOwner",
          "type": "address"
        }
      ],
      "name": "OwnershipTransferred",
      "type": "event"
    },
    {
      "anonymous": false,
      "inputs": [
        {
          "indexed": false,
          "internalType": "uint256",
          "name": "cid",
          "type": "uint256"
        },
        {
          "indexed": false,
          "internalType": "string",
          "name": "cidate",
          "type": "string"
        }
      ],
      "name": "issued",
      "type": "event"
    },
    {
      "inputs": [
        {
          "internalType": "uint256",
          "name": "",
          "type": "uint256"
        }
      ],
      "name": "Certificates",
      "outputs": [
        {
          "internalType": "string",
          "name": "name",
          "type": "string"
        },
        {
          "internalType": "string",
          "name": "course",
          "type": "string"
        },
        {
          "internalType": "string",
          "name": "grade",
          "type": "string"
        },
        {
          "internalType": "string",
          "name": "date",
          "type": "string"
        }
      ],
      "stateMutability": "view",
      "type": "function"
    },
    {
      "inputs": [
        {
          "internalType": "uint256",
          "name": "_id",
          "type": "uint256"
        },
        {
          "internalType": "string",
          "name": "_name",
          "type": "string"
        },
        {
          "internalType": "string",
          "name": "_course",
          "type": "string"
        },
        {
          "internalType": "string",
          "name": "_grade",
          "type": "string"
        },
        {
          "internalType": "string",
          "name": "_date",
          "type": "string"
        }
      ],
      "name": "issue",
      "outputs": [],
      "stateMutability": "nonpayable",
      "type": "function"
    },
    {
      "inputs": [],
      "name": "owner",
      "outputs": [
        {
          "internalType": "address",
          "name": "",
          "type": "address"
        }
      ],
      "stateMutability": "view",
      "type": "function"
    },
    {
      "inputs": [],
      "name": "renounceOwnership",
      "outputs": [],
      "stateMutability": "nonpayable",
      "type": "function"
    },
    {
      "inputs": [
        {
          "internalType": "address",
          "name": "newOwner",
          "type": "address"
        }
      ],
      "name": "transferOwnership",
      "outputs": [],
      "stateMutability": "nonpayable",
      "type": "function"
    }
  ],
  "bytecode": "0x608060405234801561001057600080fd5b506040516109ec3803806109ec83398101604081905261002f916100be565b806001600160a01b03811661005e57604051631e4fbdf760e01b81526000600482015260240160405180910390fd5b6100678161006e565b50506100ee565b600080546001600160a01b038381166001600160a01b0319831681178455604051919092169283917f8be0079c531659141344cd1fd0a4f28419497f9722a3daafe3b4186f6b6457e09190a35050565b6000602082840312156100d057600080fd5b81516001600160a01b03811681146100e757600080fd5b9392505050565b6108ef806100fd6000396000f3fe608060405234801561001057600080fd5b50600436106100675760003560e01c80639622c836116100505780639622c83614610096578063d1e7be26146100b9578063f2fde38b146100cc57600080fd5b8063715018a61461006c5780638da5cb5b14610076575b600080fd5b6100746100df565b005b6000546040516001600160a01b0390911681526020015b60405180910390f35b6100a96100a436600461050e565b6100f3565b60405161008d949392919061056d565b6100746100c7366004610668565b61033b565b6100746100da36600461071f565b610404565b6100e7610460565b6100f160006104a6565b565b60016020526000908152604090208054819061010e9061074f565b80601f016020809104026020016040519081016040528092919081815260200182805461013a9061074f565b80156101875780601f1061015c57610100808354040283529160200191610187565b820191906000526020600020905b81548152906001019060200180831161016a57829003601f168201915b50505050509080600101805461019c9061074f565b80601f01602080910402602001604051908101604052809291908181526020018280546101c89061074f565b80156102155780601f106101ea57610100808354040283529160200191610215565b820191906000526020600020905b8154815290600101906020018083116101f857829003601f168201915b50505050509080600201805461022a9061074f565b80601f01602080910402602001604051908101604052809291908181526020018280546102569061074f565b80156102a35780601f10610278576101008083540402835291602001916102a3565b820191906000526020600020905b81548152906001019060200180831161028657829003601f168201915b5050505050908060030180546102b89061074f565b80601f01602080910402602001604051908101604052809291908181526020018280546102e49061074f565b80156103315780601f1061030657610100808354040283529160200191610331565b820191906000526020600020905b81548152906001019060200180831161031457829003601f168201915b5050505050905084565b610343610460565b6040805160808101825285815260208082018690528183018590526060820184905260008881526001909152919091208151819061038190826107d8565b506020820151600182019061039690826107d8565b50604082015160028201906103ab90826107d8565b50606082015160038201906103c090826107d8565b509050507f63c63848983d6b8da62305c82b2acd19735be5904a39f9a88b81e74e05c9cdbd85826040516103f5929190610898565b60405180910390a15050505050565b61040c610460565b6001600160a01b038116610454576040517f1e4fbdf7000000000000000000000000000000000000000000000000000000008152600060048201526024015b60405180910390fd5b61045d816104a6565b50565b6000546001600160a01b031633146100f1576040517f118cdaa700000000000000000000000000000000000000000000000000000000815233600482015260240161044b565b600080546001600160a01b038381167fffffffffffffffffffffffff0000000000000000000000000000000000000000831681178455604051919092169283917f8be0079c531659141344cd1fd0a4f28419497f9722a3daafe3b4186f6b6457e09190a35050565b60006020828403121561052057600080fd5b5035919050565b6000815180845260005b8181101561054d57602081850181015186830182015201610531565b506000602082860101526020601f19601f83011685010191505092915050565b6080815260006105806080830187610527565b82810360208401526105928187610527565b905082810360408401526105a68186610527565b905082810360608401526105ba8185610527565b979650505050505050565b634e487b7160e01b600052604160045260246000fd5b600082601f8301126105ec57600080fd5b813567ffffffffffffffff80821115610607576106076105c5565b604051601f8301601f19908116603f0116810190828211818310171561062f5761062f6105c5565b8160405283815286602085880101111561064857600080fd5b836020870160208301376000602085830101528094505050505092915050565b600080600080600060a0868803121561068057600080fd5b85359450602086013567ffffffffffffffff8082111561069f57600080fd5b6106ab89838a016105db565b955060408801359150808211156106c157600080fd5b6106cd89838a016105db565b945060608801359150808211156106e357600080fd5b6106ef89838a016105db565b9350608088013591508082111561070557600080fd5b50610712888289016105db565b9150509295509295909350565b60006020828403121561073157600080fd5b81356001600160a01b038116811461074857600080fd5b9392505050565b600181811c9082168061076357607f821691505b60208210810361078357634e487b7160e01b600052602260045260246000fd5b50919050565b601f8211156107d357600081815260208120601f850160051c810160208610156107b05750805b601f850160051c820191505b818110156107cf578281556001016107bc565b5050505b505050565b815167ffffffffffffffff8111156107f2576107f26105c5565b61080681610800845461074f565b84610789565b602080601f83116001811461083b57600084156108235750858301515b600019600386901b1c1916600185901b1785556107cf565b600085815260208120601f198616915b8281101561086a5788860151825594840194600190910190840161084b565b50858210156108885787850151600019600388901b60f8161c191681555b5050505050600190811b01905550565b8281526040602082015260006108b16040830184610527565b94935050505056fea26469706673582212203c72886e0c74f27d8ddb77323bfa43345cc849b0681af1b4ca7085c8fb4cc62264736f6c63430008140033",
  "linkReferences": {},
  "deployedLinkReferences": {}
}