{
  "_format": "hh-sol-artifact-1",
  "contractName": "GovToken",
  "sourceName": "contracts/KBAToken.sol",
  "abi": [
    {
      "inputs": [
        {
          "internalType": "address",
          "name": "initialOwner",
          "type": "address"
        }
      ],
      "stateMutability": "nonpayable",
      "type": "constructor"
    },
    {
      "inputs": [],
      "name": "CheckpointUnorderedInsertion",
      "type": "error"
    },
    {
      "inputs": [],
      "name": "ECDSAInvalidSignature",
      "type": "error"
    },
    {
      "inputs": [
        {
          "internalType": "uint256",
          "name": "length",
          "type": "uint256"
        }
      ],
      "name": "ECDSAInvalidSignatureLength",
      "type": "error"
    },
    {
      "inputs": [
        {
          "internalType": "bytes32",
          "name": "s",
          "type": "bytes32"
        }
      ],
      "name": "ECDSAInvalidSignatureS",
      "type": "error"
    },
    {
      "inputs": [
        {
          "internalType": "uint256",
          "name": "increasedSupply",
          "type": "uint256"
        },
        {
          "internalType": "uint256",
          "name": "cap",
          "type": "uint256"
        }
      ],
      "name": "ERC20ExceededSafeSupply",
      "type": "error"
    },
    {
      "inputs": [
        {
          "internalType": "address",
          "name": "spender",
          "type": "address"
        },
        {
          "internalType": "uint256",
          "name": "allowance",
          "type": "uint256"
        },
        {
          "internalType": "uint256",
          "name": "needed",
          "type": "uint256"
        }
      ],
      "name": "ERC20InsufficientAllowance",
      "type": "error"
    },
    {
      "inputs": [
        {
          "internalType": "address",
          "name": "sender",
          "type": "address"
        },
        {
          "internalType": "uint256",
          "name": "balance",
          "type": "uint256"
        },
        {
          "internalType": "uint256",
          "name": "needed",
          "type": "uint256"
        }
      ],
      "name": "ERC20InsufficientBalance",
      "type": "error"
    },
    {
      "inputs": [
        {
          "internalType": "address",
          "name": "approver",
          "type": "address"
        }
      ],
      "name": "ERC20InvalidApprover",
      "type": "error"
    },
    {
      "inputs": [
        {
          "internalType": "address",
          "name": "receiver",
          "type": "address"
        }
      ],
      "name": "ERC20InvalidReceiver",
      "type": "error"
    },
    {
      "inputs": [
        {
          "internalType": "address",
          "name": "sender",
          "type": "address"
        }
      ],
      "name": "ERC20InvalidSender",
      "type": "error"
    },
    {
      "inputs": [
        {
          "internalType": "address",
          "name": "spender",
          "type": "address"
        }
      ],
      "name": "ERC20InvalidSpender",
      "type": "error"
    },
    {
      "inputs": [
        {
          "internalType": "uint256",
          "name": "deadline",
          "type": "uint256"
        }
      ],
      "name": "ERC2612ExpiredSignature",
      "type": "error"
    },
    {
      "inputs": [
        {
          "internalType": "address",
          "name": "signer",
          "type": "address"
        },
        {
          "internalType": "address",
          "name": "owner",
          "type": "address"
        }
      ],
      "name": "ERC2612InvalidSigner",
      "type": "error"
    },
    {
      "inputs": [
        {
          "internalType": "uint256",
          "name": "timepoint",
          "type": "uint256"
        },
        {
          "internalType": "uint48",
          "name": "clock",
          "type": "uint48"
        }
      ],
      "name": "ERC5805FutureLookup",
      "type": "error"
    },
    {
      "inputs": [],
      "name": "ERC6372InconsistentClock",
      "type": "error"
    },
    {
      "inputs": [
        {
          "internalType": "address",
          "name": "account",
          "type": "address"
        },
        {
          "internalType": "uint256",
          "name": "currentNonce",
          "type": "uint256"
        }
      ],
      "name": "InvalidAccountNonce",
      "type": "error"
    },
    {
      "inputs": [],
      "name": "InvalidShortString",
      "type": "error"
    },
    {
      "inputs": [
        {
          "internalType": "address",
          "name": "owner",
          "type": "address"
        }
      ],
      "name": "OwnableInvalidOwner",
      "type": "error"
    },
    {
      "inputs": [
        {
          "internalType": "address",
          "name": "account",
          "type": "address"
        }
      ],
      "name": "OwnableUnauthorizedAccount",
      "type": "error"
    },
    {
      "inputs": [
        {
          "internalType": "uint8",
          "name": "bits",
          "type": "uint8"
        },
        {
          "internalType": "uint256",
          "name": "value",
          "type": "uint256"
        }
      ],
      "name": "SafeCastOverflowedUintDowncast",
      "type": "error"
    },
    {
      "inputs": [
        {
          "internalType": "string",
          "name": "str",
          "type": "string"
        }
      ],
      "name": "StringTooLong",
      "type": "error"
    },
    {
      "inputs": [
        {
          "internalType": "uint256",
          "name": "expiry",
          "type": "uint256"
        }
      ],
      "name": "VotesExpiredSignature",
      "type": "error"
    },
    {
      "anonymous": false,
      "inputs": [
        {
          "indexed": true,
          "internalType": "address",
          "name": "owner",
          "type": "address"
        },
        {
          "indexed": true,
          "internalType": "address",
          "name": "spender",
          "type": "address"
        },
        {
          "indexed": false,
          "internalType": "uint256",
          "name": "value",
          "type": "uint256"
        }
      ],
      "name": "Approval",
      "type": "event"
    },
    {
      "anonymous": false,
      "inputs": [
        {
          "indexed": true,
          "internalType": "address",
          "name": "delegator",
          "type": "address"
        },
        {
          "indexed": true,
          "internalType": "address",
          "name": "fromDelegate",
          "type": "address"
        },
        {
          "indexed": true,
          "internalType": "address",
          "name": "toDelegate",
          "type": "address"
        }
      ],
      "name": "DelegateChanged",
      "type": "event"
    },
    {
      "anonymous": false,
      "inputs": [
        {
          "indexed": true,
          "internalType": "address",
          "name": "delegate",
          "type": "address"
        },
        {
          "indexed": false,
          "internalType": "uint256",
          "name": "previousVotes",
          "type": "uint256"
        },
        {
          "indexed": false,
          "internalType": "uint256",
          "name": "newVotes",
          "type": "uint256"
        }
      ],
      "name": "DelegateVotesChanged",
      "type": "event"
    },
    {
      "anonymous": false,
      "inputs": [],
      "name": "EIP712DomainChanged",
      "type": "event"
    },
    {
      "anonymous": false,
      "inputs": [
        {
          "indexed": true,
          "internalType": "address",
          "name": "previousOwner",
          "type": "address"
        },
        {
          "indexed": true,
          "internalType": "address",
          "name": "newOwner",
          "type": "address"
        }
      ],
      "name": "OwnershipTransferred",
      "type": "event"
    },
    {
      "anonymous": false,
      "inputs": [
        {
          "indexed": true,
          "internalType": "address",
          "name": "from",
          "type": "address"
        },
        {
          "indexed": true,
          "internalType": "address",
          "name": "to",
          "type": "address"
        },
        {
          "indexed": false,
          "internalType": "uint256",
          "name": "value",
          "type": "uint256"
        }
      ],
      "name": "Transfer",
      "type": "event"
    },
    {
      "inputs": [],
      "name": "CLOCK_MODE",
      "outputs": [
        {
          "internalType": "string",
          "name": "",
          "type": "string"
        }
      ],
      "stateMutability": "view",
      "type": "function"
    },
    {
      "inputs": [],
      "name": "DOMAIN_SEPARATOR",
      "outputs": [
        {
          "internalType": "bytes32",
          "name": "",
          "type": "bytes32"
        }
      ],
      "stateMutability": "view",
      "type": "function"
    },
    {
      "inputs": [
        {
          "internalType": "address",
          "name": "owner",
          "type": "address"
        },
        {
          "internalType": "address",
          "name": "spender",
          "type": "address"
        }
      ],
      "name": "allowance",
      "outputs": [
        {
          "internalType": "uint256",
          "name": "",
          "type": "uint256"
        }
      ],
      "stateMutability": "view",
      "type": "function"
    },
    {
      "inputs": [
        {
          "internalType": "address",
          "name": "spender",
          "type": "address"
        },
        {
          "internalType": "uint256",
          "name": "value",
          "type": "uint256"
        }
      ],
      "name": "approve",
      "outputs": [
        {
          "internalType": "bool",
          "name": "",
          "type": "bool"
        }
      ],
      "stateMutability": "nonpayable",
      "type": "function"
    },
    {
      "inputs": [
        {
          "internalType": "address",
          "name": "account",
          "type": "address"
        }
      ],
      "name": "balanceOf",
      "outputs": [
        {
          "internalType": "uint256",
          "name": "",
          "type": "uint256"
        }
      ],
      "stateMutability": "view",
      "type": "function"
    },
    {
      "inputs": [
        {
          "internalType": "address",
          "name": "account",
          "type": "address"
        },
        {
          "internalType": "uint32",
          "name": "pos",
          "type": "uint32"
        }
      ],
      "name": "checkpoints",
      "outputs": [
        {
          "components": [
            {
              "internalType": "uint48",
              "name": "_key",
              "type": "uint48"
            },
            {
              "internalType": "uint208",
              "name": "_value",
              "type": "uint208"
            }
          ],
          "internalType": "struct Checkpoints.Checkpoint208",
          "name": "",
          "type": "tuple"
        }
      ],
      "stateMutability": "view",
      "type": "function"
    },
    {
      "inputs": [],
      "name": "clock",
      "outputs": [
        {
          "internalType": "uint48",
          "name": "",
          "type": "uint48"
        }
      ],
      "stateMutability": "view",
      "type": "function"
    },
    {
      "inputs": [],
      "name": "decimals",
      "outputs": [
        {
          "internalType": "uint8",
          "name": "",
          "type": "uint8"
        }
      ],
      "stateMutability": "view",
      "type": "function"
    },
    {
      "inputs": [
        {
          "internalType": "address",
          "name": "delegatee",
          "type": "address"
        }
      ],
      "name": "delegate",
      "outputs": [],
      "stateMutability": "nonpayable",
      "type": "function"
    },
    {
      "inputs": [
        {
          "internalType": "address",
          "name": "delegatee",
          "type": "address"
        },
        {
          "internalType": "uint256",
          "name": "nonce",
          "type": "uint256"
        },
        {
          "internalType": "uint256",
          "name": "expiry",
          "type": "uint256"
        },
        {
          "internalType": "uint8",
          "name": "v",
          "type": "uint8"
        },
        {
          "internalType": "bytes32",
          "name": "r",
          "type": "bytes32"
        },
        {
          "internalType": "bytes32",
          "name": "s",
          "type": "bytes32"
        }
      ],
      "name": "delegateBySig",
      "outputs": [],
      "stateMutability": "nonpayable",
      "type": "function"
    },
    {
      "inputs": [
        {
          "internalType": "address",
          "name": "account",
          "type": "address"
        }
      ],
      "name": "delegates",
      "outputs": [
        {
          "internalType": "address",
          "name": "",
          "type": "address"
        }
      ],
      "stateMutability": "view",
      "type": "function"
    },
    {
      "inputs": [],
      "name": "eip712Domain",
      "outputs": [
        {
          "internalType": "bytes1",
          "name": "fields",
          "type": "bytes1"
        },
        {
          "internalType": "string",
          "name": "name",
          "type": "string"
        },
        {
          "internalType": "string",
          "name": "version",
          "type": "string"
        },
        {
          "internalType": "uint256",
          "name": "chainId",
          "type": "uint256"
        },
        {
          "internalType": "address",
          "name": "verifyingContract",
          "type": "address"
        },
        {
          "internalType": "bytes32",
          "name": "salt",
          "type": "bytes32"
        },
        {
          "internalType": "uint256[]",
          "name": "extensions",
          "type": "uint256[]"
        }
      ],
      "stateMutability": "view",
      "type": "function"
    },
    {
      "inputs": [
        {
          "internalType": "uint256",
          "name": "timepoint",
          "type": "uint256"
        }
      ],
      "name": "getPastTotalSupply",
      "outputs": [
        {
          "internalType": "uint256",
          "name": "",
          "type": "uint256"
        }
      ],
      "stateMutability": "view",
      "type": "function"
    },
    {
      "inputs": [
        {
          "internalType": "address",
          "name": "account",
          "type": "address"
        },
        {
          "internalType": "uint256",
          "name": "timepoint",
          "type": "uint256"
        }
      ],
      "name": "getPastVotes",
      "outputs": [
        {
          "internalType": "uint256",
          "name": "",
          "type": "uint256"
        }
      ],
      "stateMutability": "view",
      "type": "function"
    },
    {
      "inputs": [
        {
          "internalType": "address",
          "name": "account",
          "type": "address"
        }
      ],
      "name": "getVotes",
      "outputs": [
        {
          "internalType": "uint256",
          "name": "",
          "type": "uint256"
        }
      ],
      "stateMutability": "view",
      "type": "function"
    },
    {
      "inputs": [
        {
          "internalType": "address",
          "name": "to",
          "type": "address"
        },
        {
          "internalType": "uint256",
          "name": "amount",
          "type": "uint256"
        }
      ],
      "name": "mint",
      "outputs": [],
      "stateMutability": "nonpayable",
      "type": "function"
    },
    {
      "inputs": [],
      "name": "name",
      "outputs": [
        {
          "internalType": "string",
          "name": "",
          "type": "string"
        }
      ],
      "stateMutability": "view",
      "type": "function"
    },
    {
      "inputs": [
        {
          "internalType": "address",
          "name": "owner",
          "type": "address"
        }
      ],
      "name": "nonces",
      "outputs": [
        {
          "internalType": "uint256",
          "name": "",
          "type": "uint256"
        }
      ],
      "stateMutability": "view",
      "type": "function"
    },
    {
      "inputs": [
        {
          "internalType": "address",
          "name": "account",
          "type": "address"
        }
      ],
      "name": "numCheckpoints",
      "outputs": [
        {
          "internalType": "uint32",
          "name": "",
          "type": "uint32"
        }
      ],
      "stateMutability": "view",
      "type": "function"
    },
    {
      "inputs": [],
      "name": "owner",
      "outputs": [
        {
          "internalType": "address",
          "name": "",
          "type": "address"
        }
      ],
      "stateMutability": "view",
      "type": "function"
    },
    {
      "inputs": [
        {
          "internalType": "address",
          "name": "owner",
          "type": "address"
        },
        {
          "internalType": "address",
          "name": "spender",
          "type": "address"
        },
        {
          "internalType": "uint256",
          "name": "value",
          "type": "uint256"
        },
        {
          "internalType": "uint256",
          "name": "deadline",
          "type": "uint256"
        },
        {
          "internalType": "uint8",
          "name": "v",
          "type": "uint8"
        },
        {
          "internalType": "bytes32",
          "name": "r",
          "type": "bytes32"
        },
        {
          "internalType": "bytes32",
          "name": "s",
          "type": "bytes32"
        }
      ],
      "name": "permit",
      "outputs": [],
      "stateMutability": "nonpayable",
      "type": "function"
    },
    {
      "inputs": [],
      "name": "renounceOwnership",
      "outputs": [],
      "stateMutability": "nonpayable",
      "type": "function"
    },
    {
      "inputs": [],
      "name": "symbol",
      "outputs": [
        {
          "internalType": "string",
          "name": "",
          "type": "string"
        }
      ],
      "stateMutability": "view",
      "type": "function"
    },
    {
      "inputs": [],
      "name": "totalSupply",
      "outputs": [
        {
          "internalType": "uint256",
          "name": "",
          "type": "uint256"
        }
      ],
      "stateMutability": "view",
      "type": "function"
    },
    {
      "inputs": [
        {
          "internalType": "address",
          "name": "to",
          "type": "address"
        },
        {
          "internalType": "uint256",
          "name": "value",
          "type": "uint256"
        }
      ],
      "name": "transfer",
      "outputs": [
        {
          "internalType": "bool",
          "name": "",
          "type": "bool"
        }
      ],
      "stateMutability": "nonpayable",
      "type": "function"
    },
    {
      "inputs": [
        {
          "internalType": "address",
          "name": "from",
          "type": "address"
        },
        {
          "internalType": "address",
          "name": "to",
          "type": "address"
        },
        {
          "internalType": "uint256",
          "name": "value",
          "type": "uint256"
        }
      ],
      "name": "transferFrom",
      "outputs": [
        {
          "internalType": "bool",
          "name": "",
          "type": "bool"
        }
      ],
      "stateMutability": "nonpayable",
      "type": "function"
    },
    {
      "inputs": [
        {
          "internalType": "address",
          "name": "newOwner",
          "type": "address"
        }
      ],
      "name": "transferOwnership",
      "outputs": [],
      "stateMutability": "nonpayable",
      "type": "function"
    }
  ],
  "bytecode": "0x6101606040523480156200001257600080fd5b5060405162002f8938038062002f89833981016040819052620000359162000967565b806040518060400160405280600881526020016723b7bb2a37b5b2b760c11b81525080604051806040016040528060018152602001603160f81b8152506040518060400160405280600881526020016723b7bb2a37b5b2b760c11b8152506040518060400160405280600281526020016111d560f21b8152508160039081620000bf919062000a36565b506004620000ce828262000a36565b50620000e091508390506005620001f3565b61012052620000f1816006620001f3565b61014052815160208084019190912060e052815190820120610100524660a0526200017f60e05161010051604080517f8b73c3c69bb8fe3d512ecc4cf759cc79239f7b179b0ffacaa9a75d522b39400f60208201529081019290925260608201524660808201523060a082015260009060c00160405160208183030381529060405280519060200120905090565b60805250503060c052506001600160a01b038116620001b957604051631e4fbdf760e01b8152600060048201526024015b60405180910390fd5b620001c4816200022c565b50620001ec81620001d86012600a62000c15565b620001e6906103e862000c26565b6200027e565b5062000d2e565b600060208351101562000213576200020b83620002bc565b905062000226565b8162000220848262000a36565b5060ff90505b92915050565b600b80546001600160a01b038381166001600160a01b0319831681179093556040519116919082907f8be0079c531659141344cd1fd0a4f28419497f9722a3daafe3b4186f6b6457e090600090a35050565b6001600160a01b038216620002aa5760405163ec442f0560e01b815260006004820152602401620001b0565b620002b860008383620002ff565b5050565b600080829050601f81511115620002ea578260405163305a27a960e01b8152600401620001b0919062000c40565b8051620002f78262000c90565b179392505050565b6200030c83838362000311565b505050565b6200031e83838362000380565b6001600160a01b038316620003735760006200033960025490565b90506001600160d01b03808211156200037057604051630e58ae9360e11b81526004810183905260248101829052604401620001b0565b50505b6200030c838383620004b3565b6001600160a01b038316620003af578060026000828254620003a3919062000cb5565b90915550620004239050565b6001600160a01b03831660009081526020819052604090205481811015620004045760405163391434e360e21b81526001600160a01b03851660048201526024810182905260448101839052606401620001b0565b6001600160a01b03841660009081526020819052604090209082900390555b6001600160a01b038216620004415760028054829003905562000460565b6001600160a01b03821660009081526020819052604090208054820190555b816001600160a01b0316836001600160a01b03167fddf252ad1be2c89b69c2b068fc378daa952ba7f163c4a11628f55a4df523b3ef83604051620004a691815260200190565b60405180910390a3505050565b6001600160a01b038316620004e857620004e5600a62000a8d6200054b60201b17620004df8462000560565b6200059a565b50505b6001600160a01b038216620005175762000514600a62000a99620005d760201b17620004df8462000560565b50505b6001600160a01b038381166000908152600860205260408082205485841683529120546200030c92918216911683620005e5565b600062000559828462000ccb565b9392505050565b60006001600160d01b0382111562000596576040516306dfcc6560e41b815260d0600482015260248101839052604401620001b0565b5090565b600080620005ca620005ab6200074c565b620005c1620005ba886200075d565b868860201c565b879190620007ac565b915091505b935093915050565b600062000559828462000cf5565b816001600160a01b0316836001600160a01b031614158015620006085750600081115b156200030c576001600160a01b03831615620006ab576001600160a01b038316600090815260096020908152604082208291620006569190620005d7901b62000a9917620004df8662000560565b6001600160d01b031691506001600160d01b03169150846001600160a01b031660008051602062002f698339815191528383604051620006a0929190918252602082015260400190565b60405180910390a250505b6001600160a01b038216156200030c576001600160a01b038216600090815260096020908152604082208291620006f391906200054b901b62000a8d17620004df8662000560565b6001600160d01b031691506001600160d01b03169150836001600160a01b031660008051602062002f6983398151915283836040516200073d929190918252602082015260400190565b60405180910390a25050505050565b600062000758620007bc565b905090565b80546000908015620007a35762000789836200077b60018462000d18565b600091825260209091200190565b54660100000000000090046001600160d01b031662000559565b60009392505050565b600080620005ca858585620007c9565b6000620007584362000932565b825460009081908015620008d3576000620007eb876200077b60018562000d18565b805490915065ffffffffffff80821691660100000000000090046001600160d01b03169088168211156200083257604051632520601d60e01b815260040160405180910390fd5b8765ffffffffffff168265ffffffffffff16036200087057825465ffffffffffff1666010000000000006001600160d01b03891602178355620008c4565b6040805180820190915265ffffffffffff808a1682526001600160d01b03808a1660208085019182528d54600181018f5560008f815291909120945191519092166601000000000000029216919091179101555b9450859350620005cf92505050565b50506040805180820190915265ffffffffffff80851682526001600160d01b0380851660208085019182528854600181018a5560008a8152918220955192519093166601000000000000029190931617920191909155905081620005cf565b600065ffffffffffff82111562000596576040516306dfcc6560e41b81526030600482015260248101839052604401620001b0565b6000602082840312156200097a57600080fd5b81516001600160a01b03811681146200055957600080fd5b634e487b7160e01b600052604160045260246000fd5b600181811c90821680620009bd57607f821691505b602082108103620009de57634e487b7160e01b600052602260045260246000fd5b50919050565b601f8211156200030c57600081815260208120601f850160051c8101602086101562000a0d5750805b601f850160051c820191505b8181101562000a2e5782815560010162000a19565b505050505050565b81516001600160401b0381111562000a525762000a5262000992565b62000a6a8162000a638454620009a8565b84620009e4565b602080601f83116001811462000aa2576000841562000a895750858301515b600019600386901b1c1916600185901b17855562000a2e565b600085815260208120601f198616915b8281101562000ad35788860151825594840194600190910190840162000ab2565b508582101562000af25787850151600019600388901b60f8161c191681555b5050505050600190811b01905550565b634e487b7160e01b600052601160045260246000fd5b600181815b8085111562000b5957816000190482111562000b3d5762000b3d62000b02565b8085161562000b4b57918102915b93841c939080029062000b1d565b509250929050565b60008262000b725750600162000226565b8162000b815750600062000226565b816001811462000b9a576002811462000ba55762000bc5565b600191505062000226565b60ff84111562000bb95762000bb962000b02565b50506001821b62000226565b5060208310610133831016604e8410600b841016171562000bea575081810a62000226565b62000bf6838362000b18565b806000190482111562000c0d5762000c0d62000b02565b029392505050565b60006200055960ff84168362000b61565b808202811582820484141762000226576200022662000b02565b600060208083528351808285015260005b8181101562000c6f5785810183015185820160400152820162000c51565b506000604082860101526040601f19601f8301168501019250505092915050565b80516020808301519190811015620009de5760001960209190910360031b1b16919050565b8082018082111562000226576200022662000b02565b6001600160d01b0381811683821601908082111562000cee5762000cee62000b02565b5092915050565b6001600160d01b0382811682821603908082111562000cee5762000cee62000b02565b8181038181111562000226576200022662000b02565b60805160a05160c05160e0516101005161012051610140516121e062000d896000396000610fba01526000610f8d01526000610ca001526000610c7801526000610bd301526000610bfd01526000610c2701526121e06000f3fe608060405234801561001057600080fd5b50600436106101b95760003560e01c8063715018a6116100f95780639ab24eb011610097578063d505accf11610071578063d505accf146103cd578063dd62ed3e146103e0578063f1127ed814610419578063f2fde38b1461045857600080fd5b80639ab24eb014610394578063a9059cbb146103a7578063c3cda520146103ba57600080fd5b80638da5cb5b116100d35780638da5cb5b146103495780638e539e8c1461035a57806391ddadf41461036d57806395d89b411461038c57600080fd5b8063715018a6146103135780637ecebe001461031b57806384b0196e1461032e57600080fd5b80633a46b1a811610166578063587cde1e11610140578063587cde1e1461026b5780635c19a95c146102af5780636fcfff45146102c257806370a08231146102ea57600080fd5b80633a46b1a81461023b57806340c10f191461024e5780634bf5d7e91461026357600080fd5b806323b872dd1161019757806323b872dd14610211578063313ce567146102245780633644e5151461023357600080fd5b806306fdde03146101be578063095ea7b3146101dc57806318160ddd146101ff575b600080fd5b6101c661046b565b6040516101d39190611dc8565b60405180910390f35b6101ef6101ea366004611df7565b6104fd565b60405190151581526020016101d3565b6002545b6040519081526020016101d3565b6101ef61021f366004611e21565b610517565b604051601281526020016101d3565b61020361053b565b610203610249366004611df7565b61054a565b61026161025c366004611df7565b6105d0565b005b6101c66105e6565b610297610279366004611e5d565b6001600160a01b039081166000908152600860205260409020541690565b6040516001600160a01b0390911681526020016101d3565b6102616102bd366004611e5d565b610677565b6102d56102d0366004611e5d565b610682565b60405163ffffffff90911681526020016101d3565b6102036102f8366004611e5d565b6001600160a01b031660009081526020819052604090205490565b61026161068d565b610203610329366004611e5d565b6106a1565b6103366106ac565b6040516101d39796959493929190611e78565b600b546001600160a01b0316610297565b610203610368366004611f2a565b61070e565b610375610778565b60405165ffffffffffff90911681526020016101d3565b6101c6610782565b6102036103a2366004611e5d565b610791565b6101ef6103b5366004611df7565b6107c1565b6102616103c8366004611f54565b6107cf565b6102616103db366004611fac565b6108a5565b6102036103ee366004612016565b6001600160a01b03918216600090815260016020908152604080832093909416825291909152205490565b61042c610427366004612049565b610a11565b60408051825165ffffffffffff1681526020928301516001600160d01b031692810192909252016101d3565b610261610466366004611e5d565b610a36565b60606003805461047a90612089565b80601f01602080910402602001604051908101604052809291908181526020018280546104a690612089565b80156104f35780601f106104c8576101008083540402835291602001916104f3565b820191906000526020600020905b8154815290600101906020018083116104d657829003601f168201915b5050505050905090565b60003361050b818585610aa5565b60019150505b92915050565b600033610525858285610ab7565b610530858585610b4e565b506001949350505050565b6000610545610bc6565b905090565b600080610555610778565b90508065ffffffffffff16831061059557604051637669fc0f60e11b81526004810184905265ffffffffffff821660248201526044015b60405180910390fd5b6105bf6105a184610cf1565b6001600160a01b038616600090815260096020526040902090610d28565b6001600160d01b0316949350505050565b6105d8610de1565b6105e28282610e27565b5050565b60606105f0610e5d565b65ffffffffffff16610600610778565b65ffffffffffff161461063f576040517f6ff0714000000000000000000000000000000000000000000000000000000000815260040160405180910390fd5b5060408051808201909152601d81527f6d6f64653d626c6f636b6e756d6265722666726f6d3d64656661756c74000000602082015290565b336105e28183610e68565b600061051182610ee7565b610695610de1565b61069f6000610f09565b565b600061051182610f68565b6000606080600080600060606106c0610f86565b6106c8610fb3565b604080516000808252602082019092527f0f000000000000000000000000000000000000000000000000000000000000009b939a50919850469750309650945092509050565b600080610719610778565b90508065ffffffffffff16831061075457604051637669fc0f60e11b81526004810184905265ffffffffffff8216602482015260440161058c565b61076861076084610cf1565b600a90610d28565b6001600160d01b03169392505050565b6000610545610e5d565b60606004805461047a90612089565b6001600160a01b03811660009081526009602052604081206107b290610fe0565b6001600160d01b031692915050565b60003361050b818585610b4e565b8342111561080c576040517f4683af0e0000000000000000000000000000000000000000000000000000000081526004810185905260240161058c565b604080517fe48329057bfd03d55e49b547132e39cffd9c1820ad7b9d4c5307691425d15adf60208201526001600160a01b0388169181019190915260608101869052608081018590526000906108869061087e9060a0016040516020818303038152906040528051906020012061101c565b858585611064565b90506108928187611092565b61089c8188610e68565b50505050505050565b834211156108e2576040517f627913020000000000000000000000000000000000000000000000000000000081526004810185905260240161058c565b60007f6e71edae12b1b97f4d1f60370fef10105fa2faae0126114a169c64845d6126c988888861092f8c6001600160a01b0316600090815260076020526040902080546001810190915590565b6040805160208101969096526001600160a01b0394851690860152929091166060840152608083015260a082015260c0810186905260e001604051602081830303815290604052805190602001209050600061098a8261101c565b9050600061099a82878787611064565b9050896001600160a01b0316816001600160a01b0316146109fa576040517f4b800e460000000000000000000000000000000000000000000000000000000081526001600160a01b0380831660048301528b16602482015260440161058c565b610a058a8a8a610aa5565b50505050505050505050565b6040805180820190915260008082526020820152610a2f83836110fe565b9392505050565b610a3e610de1565b6001600160a01b038116610a81576040517f1e4fbdf70000000000000000000000000000000000000000000000000000000081526000600482015260240161058c565b610a8a81610f09565b50565b6000610a2f82846120d9565b6000610a2f8284612100565b610ab28383836001611134565b505050565b6001600160a01b038381166000908152600160209081526040808320938616835292905220546000198114610b485781811015610b39576040517ffb8f41b20000000000000000000000000000000000000000000000000000000081526001600160a01b0384166004820152602481018290526044810183905260640161058c565b610b4884848484036000611134565b50505050565b6001600160a01b038316610b91576040517f96c6fd1e0000000000000000000000000000000000000000000000000000000081526000600482015260240161058c565b6001600160a01b038216610bbb5760405163ec442f0560e01b81526000600482015260240161058c565b610ab283838361123b565b6000306001600160a01b037f000000000000000000000000000000000000000000000000000000000000000016148015610c1f57507f000000000000000000000000000000000000000000000000000000000000000046145b15610c4957507f000000000000000000000000000000000000000000000000000000000000000090565b610545604080517f8b73c3c69bb8fe3d512ecc4cf759cc79239f7b179b0ffacaa9a75d522b39400f60208201527f0000000000000000000000000000000000000000000000000000000000000000918101919091527f000000000000000000000000000000000000000000000000000000000000000060608201524660808201523060a082015260009060c00160405160208183030381529060405280519060200120905090565b600065ffffffffffff821115610d24576040516306dfcc6560e41b8152603060048201526024810183905260440161058c565b5090565b815460009081816005811115610d87576000610d4384611246565b610d4d9085612120565b60008881526020902090915081015465ffffffffffff9081169087161015610d7757809150610d85565b610d82816001612133565b92505b505b6000610d95878785856113ac565b90508015610dd357610dba87610dac600184612120565b600091825260209091200190565b54660100000000000090046001600160d01b0316610dd6565b60005b979650505050505050565b600b546001600160a01b0316331461069f576040517f118cdaa700000000000000000000000000000000000000000000000000000000815233600482015260240161058c565b6001600160a01b038216610e515760405163ec442f0560e01b81526000600482015260240161058c565b6105e26000838361123b565b600061054543610cf1565b6001600160a01b03828116600081815260086020526040808220805486861673ffffffffffffffffffffffffffffffffffffffff19821681179092559151919094169392849290917f3134e8a2e6d97e929a7e54011ea5485d7d196dd5f0ba4d4ef95803e8e3fc257f9190a4610ab28183610ee28661140e565b61142c565b6001600160a01b03811660009081526009602052604081205461051190611598565b600b80546001600160a01b0383811673ffffffffffffffffffffffffffffffffffffffff19831681179093556040519116919082907f8be0079c531659141344cd1fd0a4f28419497f9722a3daafe3b4186f6b6457e090600090a35050565b6001600160a01b038116600090815260076020526040812054610511565b60606105457f000000000000000000000000000000000000000000000000000000000000000060056115c9565b60606105457f000000000000000000000000000000000000000000000000000000000000000060066115c9565b8054600090801561101357610ffa83610dac600184612120565b54660100000000000090046001600160d01b0316610a2f565b60009392505050565b6000610511611029610bc6565b836040517f19010000000000000000000000000000000000000000000000000000000000008152600281019290925260228201526042902090565b60008060008061107688888888611674565b9250925092506110868282611743565b50909695505050505050565b6001600160a01b0382166000908152600760205260409020805460018101909155818114610ab2576040517f752d88c00000000000000000000000000000000000000000000000000000000081526001600160a01b03841660048201526024810182905260440161058c565b60408051808201909152600080825260208201526001600160a01b0383166000908152600960205260409020610a2f9083611847565b6001600160a01b038416611177576040517fe602df050000000000000000000000000000000000000000000000000000000081526000600482015260240161058c565b6001600160a01b0383166111ba576040517f94280d620000000000000000000000000000000000000000000000000000000081526000600482015260240161058c565b6001600160a01b0380851660009081526001602090815260408083209387168352929052208290558015610b4857826001600160a01b0316846001600160a01b03167f8c5be1e5ebec7d5bd14f71427d1e84f3dd0314c0f7b2291e5b200ac8c7c3b9258460405161122d91815260200190565b60405180910390a350505050565b610ab28383836118ba565b600060018211611254575090565b816001700100000000000000000000000000000000821061127a5760809190911c9060401b5b6801000000000000000082106112955760409190911c9060201b5b64010000000082106112ac5760209190911c9060101b5b6201000082106112c15760109190911c9060081b5b61010082106112d55760089190911c9060041b5b601082106112e85760049190911c9060021b5b600482106112f45760011b5b600302600190811c9081858161130c5761130c612146565b048201901c9050600181858161132457611324612146565b048201901c9050600181858161133c5761133c612146565b048201901c9050600181858161135457611354612146565b048201901c9050600181858161136c5761136c612146565b048201901c9050600181858161138457611384612146565b048201901c90506113a381858161139d5761139d612146565b04821190565b90039392505050565b60005b818310156114065760006113c3848461193a565b60008781526020902090915065ffffffffffff86169082015465ffffffffffff1611156113f257809250611400565b6113fd816001612133565b93505b506113af565b509392505050565b6001600160a01b038116600090815260208190526040812054610511565b816001600160a01b0316836001600160a01b03161415801561144e5750600081115b15610ab2576001600160a01b038316156114f6576001600160a01b0383166000908152600960205260408120819061149190610a9961148c86611955565b611989565b6001600160d01b031691506001600160d01b03169150846001600160a01b03167fdec2bacdd2f05b59de34da9b523dff8be42e5e38e818c82fdb0bae774387a72483836040516114eb929190918252602082015260400190565b60405180910390a250505b6001600160a01b03821615610ab2576001600160a01b0382166000908152600960205260408120819061152f90610a8d61148c86611955565b6001600160d01b031691506001600160d01b03169150836001600160a01b03167fdec2bacdd2f05b59de34da9b523dff8be42e5e38e818c82fdb0bae774387a7248383604051611589929190918252602082015260400190565b60405180910390a25050505050565b600063ffffffff821115610d24576040516306dfcc6560e41b8152602060048201526024810183905260440161058c565b606060ff83146115e3576115dc836119c2565b9050610511565b8180546115ef90612089565b80601f016020809104026020016040519081016040528092919081815260200182805461161b90612089565b80156116685780601f1061163d57610100808354040283529160200191611668565b820191906000526020600020905b81548152906001019060200180831161164b57829003601f168201915b50505050509050610511565b600080807f7fffffffffffffffffffffffffffffff5d576e7357a4501ddfe92f46681b20a08411156116af5750600091506003905082611739565b604080516000808252602082018084528a905260ff891692820192909252606081018790526080810186905260019060a0016020604051602081039080840390855afa158015611703573d6000803e3d6000fd5b5050604051601f1901519150506001600160a01b03811661172f57506000925060019150829050611739565b9250600091508190505b9450945094915050565b60008260038111156117575761175761215c565b03611760575050565b60018260038111156117745761177461215c565b036117ab576040517ff645eedf00000000000000000000000000000000000000000000000000000000815260040160405180910390fd5b60028260038111156117bf576117bf61215c565b036117f9576040517ffce698f70000000000000000000000000000000000000000000000000000000081526004810182905260240161058c565b600382600381111561180d5761180d61215c565b036105e2576040517fd78bce0c0000000000000000000000000000000000000000000000000000000081526004810182905260240161058c565b6040805180820190915260008082526020820152826000018263ffffffff168154811061187657611876612172565b60009182526020918290206040805180820190915291015465ffffffffffff81168252660100000000000090046001600160d01b0316918101919091529392505050565b6118c5838383611a01565b6001600160a01b03831661192f5760006118de60025490565b90506001600160d01b038082111561192c576040517f1cb15d26000000000000000000000000000000000000000000000000000000008152600481018390526024810182905260440161058c565b50505b610ab2838383611b44565b60006119496002848418612188565b610a2f90848416612133565b60006001600160d01b03821115610d24576040516306dfcc6560e41b815260d060048201526024810183905260440161058c565b6000806119b5611997610778565b6119ad6119a388610fe0565b868863ffffffff16565b879190611bba565b915091505b935093915050565b606060006119cf83611bc8565b604080516020808252818301909252919250600091906020820181803683375050509182525060208101929092525090565b6001600160a01b038316611a2c578060026000828254611a219190612133565b90915550611ab79050565b6001600160a01b03831660009081526020819052604090205481811015611a98576040517fe450d38c0000000000000000000000000000000000000000000000000000000081526001600160a01b0385166004820152602481018290526044810183905260640161058c565b6001600160a01b03841660009081526020819052604090209082900390555b6001600160a01b038216611ad357600280548290039055611af2565b6001600160a01b03821660009081526020819052604090208054820190555b816001600160a01b0316836001600160a01b03167fddf252ad1be2c89b69c2b068fc378daa952ba7f163c4a11628f55a4df523b3ef83604051611b3791815260200190565b60405180910390a3505050565b6001600160a01b038316611b6657611b63600a610a8d61148c84611955565b50505b6001600160a01b038216611b8857611b85600a610a9961148c84611955565b50505b6001600160a01b03838116600090815260086020526040808220548584168352912054610ab29291821691168361142c565b6000806119b5858585611c09565b600060ff8216601f811115610511576040517fb3512b0c00000000000000000000000000000000000000000000000000000000815260040160405180910390fd5b825460009081908015611d24576000611c2787610dac600185612120565b805490915065ffffffffffff80821691660100000000000090046001600160d01b0316908816821115611c86576040517f2520601d00000000000000000000000000000000000000000000000000000000815260040160405180910390fd5b8765ffffffffffff168265ffffffffffff1603611cc257825465ffffffffffff1666010000000000006001600160d01b03891602178355611d16565b6040805180820190915265ffffffffffff808a1682526001600160d01b03808a1660208085019182528d54600181018f5560008f815291909120945191519092166601000000000000029216919091179101555b94508593506119ba92505050565b50506040805180820190915265ffffffffffff80851682526001600160d01b0380851660208085019182528854600181018a5560008a81529182209551925190931666010000000000000291909316179201919091559050816119ba565b6000815180845260005b81811015611da857602081850181015186830182015201611d8c565b506000602082860101526020601f19601f83011685010191505092915050565b602081526000610a2f6020830184611d82565b80356001600160a01b0381168114611df257600080fd5b919050565b60008060408385031215611e0a57600080fd5b611e1383611ddb565b946020939093013593505050565b600080600060608486031215611e3657600080fd5b611e3f84611ddb565b9250611e4d60208501611ddb565b9150604084013590509250925092565b600060208284031215611e6f57600080fd5b610a2f82611ddb565b7fff00000000000000000000000000000000000000000000000000000000000000881681526000602060e081840152611eb460e084018a611d82565b8381036040850152611ec6818a611d82565b606085018990526001600160a01b038816608086015260a0850187905284810360c0860152855180825283870192509083019060005b81811015611f1857835183529284019291840191600101611efc565b50909c9b505050505050505050505050565b600060208284031215611f3c57600080fd5b5035919050565b803560ff81168114611df257600080fd5b60008060008060008060c08789031215611f6d57600080fd5b611f7687611ddb565b95506020870135945060408701359350611f9260608801611f43565b92506080870135915060a087013590509295509295509295565b600080600080600080600060e0888a031215611fc757600080fd5b611fd088611ddb565b9650611fde60208901611ddb565b95506040880135945060608801359350611ffa60808901611f43565b925060a0880135915060c0880135905092959891949750929550565b6000806040838503121561202957600080fd5b61203283611ddb565b915061204060208401611ddb565b90509250929050565b6000806040838503121561205c57600080fd5b61206583611ddb565b9150602083013563ffffffff8116811461207e57600080fd5b809150509250929050565b600181811c9082168061209d57607f821691505b6020821081036120bd57634e487b7160e01b600052602260045260246000fd5b50919050565b634e487b7160e01b600052601160045260246000fd5b6001600160d01b038181168382160190808211156120f9576120f96120c3565b5092915050565b6001600160d01b038281168282160390808211156120f9576120f96120c3565b81810381811115610511576105116120c3565b80820180821115610511576105116120c3565b634e487b7160e01b600052601260045260246000fd5b634e487b7160e01b600052602160045260246000fd5b634e487b7160e01b600052603260045260246000fd5b6000826121a557634e487b7160e01b600052601260045260246000fd5b50049056fea264697066735822122064d1a97a12aa268da193db94e4295a1a466f6104a70e0566a4ff20be2bb4032364736f6c63430008140033dec2bacdd2f05b59de34da9b523dff8be42e5e38e818c82fdb0bae774387a724",
  "linkReferences": {},
  "deployedLinkReferences": {}
}