{
  "_format": "hh-sol-artifact-1",
  "contractName": "MyGovernor",
  "sourceName": "contracts/governer.sol",
  "abi": [
    {
      "inputs": [
        {
          "internalType": "contract IVotes",
          "name": "_token",
          "type": "address"
        },
        {
          "internalType": "contract TimelockController",
          "name": "_timelock",
          "type": "address"
        }
      ],
      "stateMutability": "nonpayable",
      "type": "constructor"
    },
    {
      "inputs": [],
      "name": "CheckpointUnorderedInsertion",
      "type": "error"
    },
    {
      "inputs": [],
      "name": "FailedCall",
      "type": "error"
    },
    {
      "inputs": [
        {
          "internalType": "address",
          "name": "voter",
          "type": "address"
        }
      ],
      "name": "GovernorAlreadyCastVote",
      "type": "error"
    },
    {
      "inputs": [
        {
          "internalType": "uint256",
          "name": "proposalId",
          "type": "uint256"
        }
      ],
      "name": "GovernorAlreadyQueuedProposal",
      "type": "error"
    },
    {
      "inputs": [],
      "name": "GovernorDisabledDeposit",
      "type": "error"
    },
    {
      "inputs": [
        {
          "internalType": "address",
          "name": "proposer",
          "type": "address"
        },
        {
          "internalType": "uint256",
          "name": "votes",
          "type": "uint256"
        },
        {
          "internalType": "uint256",
          "name": "threshold",
          "type": "uint256"
        }
      ],
      "name": "GovernorInsufficientProposerVotes",
      "type": "error"
    },
    {
      "inputs": [
        {
          "internalType": "uint256",
          "name": "targets",
          "type": "uint256"
        },
        {
          "internalType": "uint256",
          "name": "calldatas",
          "type": "uint256"
        },
        {
          "internalType": "uint256",
          "name": "values",
          "type": "uint256"
        }
      ],
      "name": "GovernorInvalidProposalLength",
      "type": "error"
    },
    {
      "inputs": [
        {
          "internalType": "uint256",
          "name": "quorumNumerator",
          "type": "uint256"
        },
        {
          "internalType": "uint256",
          "name": "quorumDenominator",
          "type": "uint256"
        }
      ],
      "name": "GovernorInvalidQuorumFraction",
      "type": "error"
    },
    {
      "inputs": [
        {
          "internalType": "address",
          "name": "voter",
          "type": "address"
        }
      ],
      "name": "GovernorInvalidSignature",
      "type": "error"
    },
    {
      "inputs": [],
      "name": "GovernorInvalidVoteParams",
      "type": "error"
    },
    {
      "inputs": [],
      "name": "GovernorInvalidVoteType",
      "type": "error"
    },
    {
      "inputs": [
        {
          "internalType": "uint256",
          "name": "votingPeriod",
          "type": "uint256"
        }
      ],
      "name": "GovernorInvalidVotingPeriod",
      "type": "error"
    },
    {
      "inputs": [
        {
          "internalType": "uint256",
          "name": "proposalId",
          "type": "uint256"
        }
      ],
      "name": "GovernorNonexistentProposal",
      "type": "error"
    },
    {
      "inputs": [
        {
          "internalType": "uint256",
          "name": "proposalId",
          "type": "uint256"
        }
      ],
      "name": "GovernorNotQueuedProposal",
      "type": "error"
    },
    {
      "inputs": [
        {
          "internalType": "address",
          "name": "account",
          "type": "address"
        }
      ],
      "name": "GovernorOnlyExecutor",
      "type": "error"
    },
    {
      "inputs": [
        {
          "internalType": "address",
          "name": "account",
          "type": "address"
        }
      ],
      "name": "GovernorOnlyProposer",
      "type": "error"
    },
    {
      "inputs": [],
      "name": "GovernorQueueNotImplemented",
      "type": "error"
    },
    {
      "inputs": [
        {
          "internalType": "address",
          "name": "proposer",
          "type": "address"
        }
      ],
      "name": "GovernorRestrictedProposer",
      "type": "error"
    },
    {
      "inputs": [
        {
          "internalType": "uint256",
          "name": "proposalId",
          "type": "uint256"
        },
        {
          "internalType": "enum IGovernor.ProposalState",
          "name": "current",
          "type": "uint8"
        },
        {
          "internalType": "bytes32",
          "name": "expectedStates",
          "type": "bytes32"
        }
      ],
      "name": "GovernorUnexpectedProposalState",
      "type": "error"
    },
    {
      "inputs": [
        {
          "internalType": "address",
          "name": "account",
          "type": "address"
        },
        {
          "internalType": "uint256",
          "name": "currentNonce",
          "type": "uint256"
        }
      ],
      "name": "InvalidAccountNonce",
      "type": "error"
    },
    {
      "inputs": [],
      "name": "InvalidShortString",
      "type": "error"
    },
    {
      "inputs": [
        {
          "internalType": "uint8",
          "name": "bits",
          "type": "uint8"
        },
        {
          "internalType": "uint256",
          "name": "value",
          "type": "uint256"
        }
      ],
      "name": "SafeCastOverflowedUintDowncast",
      "type": "error"
    },
    {
      "inputs": [
        {
          "internalType": "string",
          "name": "str",
          "type": "string"
        }
      ],
      "name": "StringTooLong",
      "type": "error"
    },
    {
      "anonymous": false,
      "inputs": [],
      "name": "EIP712DomainChanged",
      "type": "event"
    },
    {
      "anonymous": false,
      "inputs": [
        {
          "indexed": false,
          "internalType": "uint256",
          "name": "proposalId",
          "type": "uint256"
        }
      ],
      "name": "ProposalCanceled",
      "type": "event"
    },
    {
      "anonymous": false,
      "inputs": [
        {
          "indexed": false,
          "internalType": "uint256",
          "name": "proposalId",
          "type": "uint256"
        },
        {
          "indexed": false,
          "internalType": "address",
          "name": "proposer",
          "type": "address"
        },
        {
          "indexed": false,
          "internalType": "address[]",
          "name": "targets",
          "type": "address[]"
        },
        {
          "indexed": false,
          "internalType": "uint256[]",
          "name": "values",
          "type": "uint256[]"
        },
        {
          "indexed": false,
          "internalType": "string[]",
          "name": "signatures",
          "type": "string[]"
        },
        {
          "indexed": false,
          "internalType": "bytes[]",
          "name": "calldatas",
          "type": "bytes[]"
        },
        {
          "indexed": false,
          "internalType": "uint256",
          "name": "voteStart",
          "type": "uint256"
        },
        {
          "indexed": false,
          "internalType": "uint256",
          "name": "voteEnd",
          "type": "uint256"
        },
        {
          "indexed": false,
          "internalType": "string",
          "name": "description",
          "type": "string"
        }
      ],
      "name": "ProposalCreated",
      "type": "event"
    },
    {
      "anonymous": false,
      "inputs": [
        {
          "indexed": false,
          "internalType": "uint256",
          "name": "proposalId",
          "type": "uint256"
        }
      ],
      "name": "ProposalExecuted",
      "type": "event"
    },
    {
      "anonymous": false,
      "inputs": [
        {
          "indexed": false,
          "internalType": "uint256",
          "name": "proposalId",
          "type": "uint256"
        },
        {
          "indexed": false,
          "internalType": "uint256",
          "name": "etaSeconds",
          "type": "uint256"
        }
      ],
      "name": "ProposalQueued",
      "type": "event"
    },
    {
      "anonymous": false,
      "inputs": [
        {
          "indexed": false,
          "internalType": "uint256",
          "name": "oldQuorumNumerator",
          "type": "uint256"
        },
        {
          "indexed": false,
          "internalType": "uint256",
          "name": "newQuorumNumerator",
          "type": "uint256"
        }
      ],
      "name": "QuorumNumeratorUpdated",
      "type": "event"
    },
    {
      "anonymous": false,
      "inputs": [
        {
          "indexed": false,
          "internalType": "address",
          "name": "oldTimelock",
          "type": "address"
        },
        {
          "indexed": false,
          "internalType": "address",
          "name": "newTimelock",
          "type": "address"
        }
      ],
      "name": "TimelockChange",
      "type": "event"
    },
    {
      "anonymous": false,
      "inputs": [
        {
          "indexed": true,
          "internalType": "address",
          "name": "voter",
          "type": "address"
        },
        {
          "indexed": false,
          "internalType": "uint256",
          "name": "proposalId",
          "type": "uint256"
        },
        {
          "indexed": false,
          "internalType": "uint8",
          "name": "support",
          "type": "uint8"
        },
        {
          "indexed": false,
          "internalType": "uint256",
          "name": "weight",
          "type": "uint256"
        },
        {
          "indexed": false,
          "internalType": "string",
          "name": "reason",
          "type": "string"
        }
      ],
      "name": "VoteCast",
      "type": "event"
    },
    {
      "anonymous": false,
      "inputs": [
        {
          "indexed": true,
          "internalType": "address",
          "name": "voter",
          "type": "address"
        },
        {
          "indexed": false,
          "internalType": "uint256",
          "name": "proposalId",
          "type": "uint256"
        },
        {
          "indexed": false,
          "internalType": "uint8",
          "name": "support",
          "type": "uint8"
        },
        {
          "indexed": false,
          "internalType": "uint256",
          "name": "weight",
          "type": "uint256"
        },
        {
          "indexed": false,
          "internalType": "string",
          "name": "reason",
          "type": "string"
        },
        {
          "indexed": false,
          "internalType": "bytes",
          "name": "params",
          "type": "bytes"
        }
      ],
      "name": "VoteCastWithParams",
      "type": "event"
    },
    {
      "inputs": [],
      "name": "BALLOT_TYPEHASH",
      "outputs": [
        {
          "internalType": "bytes32",
          "name": "",
          "type": "bytes32"
        }
      ],
      "stateMutability": "view",
      "type": "function"
    },
    {
      "inputs": [],
      "name": "CLOCK_MODE",
      "outputs": [
        {
          "internalType": "string",
          "name": "",
          "type": "string"
        }
      ],
      "stateMutability": "view",
      "type": "function"
    },
    {
      "inputs": [],
      "name": "COUNTING_MODE",
      "outputs": [
        {
          "internalType": "string",
          "name": "",
          "type": "string"
        }
      ],
      "stateMutability": "pure",
      "type": "function"
    },
    {
      "inputs": [],
      "name": "EXTENDED_BALLOT_TYPEHASH",
      "outputs": [
        {
          "internalType": "bytes32",
          "name": "",
          "type": "bytes32"
        }
      ],
      "stateMutability": "view",
      "type": "function"
    },
    {
      "inputs": [
        {
          "internalType": "address[]",
          "name": "targets",
          "type": "address[]"
        },
        {
          "internalType": "uint256[]",
          "name": "values",
          "type": "uint256[]"
        },
        {
          "internalType": "bytes[]",
          "name": "calldatas",
          "type": "bytes[]"
        },
        {
          "internalType": "bytes32",
          "name": "descriptionHash",
          "type": "bytes32"
        }
      ],
      "name": "cancel",
      "outputs": [
        {
          "internalType": "uint256",
          "name": "",
          "type": "uint256"
        }
      ],
      "stateMutability": "nonpayable",
      "type": "function"
    },
    {
      "inputs": [
        {
          "internalType": "uint256",
          "name": "proposalId",
          "type": "uint256"
        },
        {
          "internalType": "uint8",
          "name": "support",
          "type": "uint8"
        }
      ],
      "name": "castVote",
      "outputs": [
        {
          "internalType": "uint256",
          "name": "",
          "type": "uint256"
        }
      ],
      "stateMutability": "nonpayable",
      "type": "function"
    },
    {
      "inputs": [
        {
          "internalType": "uint256",
          "name": "proposalId",
          "type": "uint256"
        },
        {
          "internalType": "uint8",
          "name": "support",
          "type": "uint8"
        },
        {
          "internalType": "address",
          "name": "voter",
          "type": "address"
        },
        {
          "internalType": "bytes",
          "name": "signature",
          "type": "bytes"
        }
      ],
      "name": "castVoteBySig",
      "outputs": [
        {
          "internalType": "uint256",
          "name": "",
          "type": "uint256"
        }
      ],
      "stateMutability": "nonpayable",
      "type": "function"
    },
    {
      "inputs": [
        {
          "internalType": "uint256",
          "name": "proposalId",
          "type": "uint256"
        },
        {
          "internalType": "uint8",
          "name": "support",
          "type": "uint8"
        },
        {
          "internalType": "string",
          "name": "reason",
          "type": "string"
        }
      ],
      "name": "castVoteWithReason",
      "outputs": [
        {
          "internalType": "uint256",
          "name": "",
          "type": "uint256"
        }
      ],
      "stateMutability": "nonpayable",
      "type": "function"
    },
    {
      "inputs": [
        {
          "internalType": "uint256",
          "name": "proposalId",
          "type": "uint256"
        },
        {
          "internalType": "uint8",
          "name": "support",
          "type": "uint8"
        },
        {
          "internalType": "string",
          "name": "reason",
          "type": "string"
        },
        {
          "internalType": "bytes",
          "name": "params",
          "type": "bytes"
        }
      ],
      "name": "castVoteWithReasonAndParams",
      "outputs": [
        {
          "internalType": "uint256",
          "name": "",
          "type": "uint256"
        }
      ],
      "stateMutability": "nonpayable",
      "type": "function"
    },
    {
      "inputs": [
        {
          "internalType": "uint256",
          "name": "proposalId",
          "type": "uint256"
        },
        {
          "internalType": "uint8",
          "name": "support",
          "type": "uint8"
        },
        {
          "internalType": "address",
          "name": "voter",
          "type": "address"
        },
        {
          "internalType": "string",
          "name": "reason",
          "type": "string"
        },
        {
          "internalType": "bytes",
          "name": "params",
          "type": "bytes"
        },
        {
          "internalType": "bytes",
          "name": "signature",
          "type": "bytes"
        }
      ],
      "name": "castVoteWithReasonAndParamsBySig",
      "outputs": [
        {
          "internalType": "uint256",
          "name": "",
          "type": "uint256"
        }
      ],
      "stateMutability": "nonpayable",
      "type": "function"
    },
    {
      "inputs": [],
      "name": "clock",
      "outputs": [
        {
          "internalType": "uint48",
          "name": "",
          "type": "uint48"
        }
      ],
      "stateMutability": "view",
      "type": "function"
    },
    {
      "inputs": [],
      "name": "eip712Domain",
      "outputs": [
        {
          "internalType": "bytes1",
          "name": "fields",
          "type": "bytes1"
        },
        {
          "internalType": "string",
          "name": "name",
          "type": "string"
        },
        {
          "internalType": "string",
          "name": "version",
          "type": "string"
        },
        {
          "internalType": "uint256",
          "name": "chainId",
          "type": "uint256"
        },
        {
          "internalType": "address",
          "name": "verifyingContract",
          "type": "address"
        },
        {
          "internalType": "bytes32",
          "name": "salt",
          "type": "bytes32"
        },
        {
          "internalType": "uint256[]",
          "name": "extensions",
          "type": "uint256[]"
        }
      ],
      "stateMutability": "view",
      "type": "function"
    },
    {
      "inputs": [
        {
          "internalType": "address[]",
          "name": "targets",
          "type": "address[]"
        },
        {
          "internalType": "uint256[]",
          "name": "values",
          "type": "uint256[]"
        },
        {
          "internalType": "bytes[]",
          "name": "calldatas",
          "type": "bytes[]"
        },
        {
          "internalType": "bytes32",
          "name": "descriptionHash",
          "type": "bytes32"
        }
      ],
      "name": "execute",
      "outputs": [
        {
          "internalType": "uint256",
          "name": "",
          "type": "uint256"
        }
      ],
      "stateMutability": "payable",
      "type": "function"
    },
    {
      "inputs": [
        {
          "internalType": "address",
          "name": "account",
          "type": "address"
        },
        {
          "internalType": "uint256",
          "name": "timepoint",
          "type": "uint256"
        }
      ],
      "name": "getVotes",
      "outputs": [
        {
          "internalType": "uint256",
          "name": "",
          "type": "uint256"
        }
      ],
      "stateMutability": "view",
      "type": "function"
    },
    {
      "inputs": [
        {
          "internalType": "address",
          "name": "account",
          "type": "address"
        },
        {
          "internalType": "uint256",
          "name": "timepoint",
          "type": "uint256"
        },
        {
          "internalType": "bytes",
          "name": "params",
          "type": "bytes"
        }
      ],
      "name": "getVotesWithParams",
      "outputs": [
        {
          "internalType": "uint256",
          "name": "",
          "type": "uint256"
        }
      ],
      "stateMutability": "view",
      "type": "function"
    },
    {
      "inputs": [
        {
          "internalType": "uint256",
          "name": "proposalId",
          "type": "uint256"
        },
        {
          "internalType": "address",
          "name": "account",
          "type": "address"
        }
      ],
      "name": "hasVoted",
      "outputs": [
        {
          "internalType": "bool",
          "name": "",
          "type": "bool"
        }
      ],
      "stateMutability": "view",
      "type": "function"
    },
    {
      "inputs": [
        {
          "internalType": "address[]",
          "name": "targets",
          "type": "address[]"
        },
        {
          "internalType": "uint256[]",
          "name": "values",
          "type": "uint256[]"
        },
        {
          "internalType": "bytes[]",
          "name": "calldatas",
          "type": "bytes[]"
        },
        {
          "internalType": "bytes32",
          "name": "descriptionHash",
          "type": "bytes32"
        }
      ],
      "name": "hashProposal",
      "outputs": [
        {
          "internalType": "uint256",
          "name": "",
          "type": "uint256"
        }
      ],
      "stateMutability": "pure",
      "type": "function"
    },
    {
      "inputs": [],
      "name": "name",
      "outputs": [
        {
          "internalType": "string",
          "name": "",
          "type": "string"
        }
      ],
      "stateMutability": "view",
      "type": "function"
    },
    {
      "inputs": [
        {
          "internalType": "address",
          "name": "owner",
          "type": "address"
        }
      ],
      "name": "nonces",
      "outputs": [
        {
          "internalType": "uint256",
          "name": "",
          "type": "uint256"
        }
      ],
      "stateMutability": "view",
      "type": "function"
    },
    {
      "inputs": [
        {
          "internalType": "address",
          "name": "",
          "type": "address"
        },
        {
          "internalType": "address",
          "name": "",
          "type": "address"
        },
        {
          "internalType": "uint256[]",
          "name": "",
          "type": "uint256[]"
        },
        {
          "internalType": "uint256[]",
          "name": "",
          "type": "uint256[]"
        },
        {
          "internalType": "bytes",
          "name": "",
          "type": "bytes"
        }
      ],
      "name": "onERC1155BatchReceived",
      "outputs": [
        {
          "internalType": "bytes4",
          "name": "",
          "type": "bytes4"
        }
      ],
      "stateMutability": "nonpayable",
      "type": "function"
    },
    {
      "inputs": [
        {
          "internalType": "address",
          "name": "",
          "type": "address"
        },
        {
          "internalType": "address",
          "name": "",
          "type": "address"
        },
        {
          "internalType": "uint256",
          "name": "",
          "type": "uint256"
        },
        {
          "internalType": "uint256",
          "name": "",
          "type": "uint256"
        },
        {
          "internalType": "bytes",
          "name": "",
          "type": "bytes"
        }
      ],
      "name": "onERC1155Received",
      "outputs": [
        {
          "internalType": "bytes4",
          "name": "",
          "type": "bytes4"
        }
      ],
      "stateMutability": "nonpayable",
      "type": "function"
    },
    {
      "inputs": [
        {
          "internalType": "address",
          "name": "",
          "type": "address"
        },
        {
          "internalType": "address",
          "name": "",
          "type": "address"
        },
        {
          "internalType": "uint256",
          "name": "",
          "type": "uint256"
        },
        {
          "internalType": "bytes",
          "name": "",
          "type": "bytes"
        }
      ],
      "name": "onERC721Received",
      "outputs": [
        {
          "internalType": "bytes4",
          "name": "",
          "type": "bytes4"
        }
      ],
      "stateMutability": "nonpayable",
      "type": "function"
    },
    {
      "inputs": [
        {
          "internalType": "uint256",
          "name": "proposalId",
          "type": "uint256"
        }
      ],
      "name": "proposalDeadline",
      "outputs": [
        {
          "internalType": "uint256",
          "name": "",
          "type": "uint256"
        }
      ],
      "stateMutability": "view",
      "type": "function"
    },
    {
      "inputs": [
        {
          "internalType": "uint256",
          "name": "proposalId",
          "type": "uint256"
        }
      ],
      "name": "proposalEta",
      "outputs": [
        {
          "internalType": "uint256",
          "name": "",
          "type": "uint256"
        }
      ],
      "stateMutability": "view",
      "type": "function"
    },
    {
      "inputs": [
        {
          "internalType": "uint256",
          "name": "proposalId",
          "type": "uint256"
        }
      ],
      "name": "proposalNeedsQueuing",
      "outputs": [
        {
          "internalType": "bool",
          "name": "",
          "type": "bool"
        }
      ],
      "stateMutability": "view",
      "type": "function"
    },
    {
      "inputs": [
        {
          "internalType": "uint256",
          "name": "proposalId",
          "type": "uint256"
        }
      ],
      "name": "proposalProposer",
      "outputs": [
        {
          "internalType": "address",
          "name": "",
          "type": "address"
        }
      ],
      "stateMutability": "view",
      "type": "function"
    },
    {
      "inputs": [
        {
          "internalType": "uint256",
          "name": "proposalId",
          "type": "uint256"
        }
      ],
      "name": "proposalSnapshot",
      "outputs": [
        {
          "internalType": "uint256",
          "name": "",
          "type": "uint256"
        }
      ],
      "stateMutability": "view",
      "type": "function"
    },
    {
      "inputs": [],
      "name": "proposalThreshold",
      "outputs": [
        {
          "internalType": "uint256",
          "name": "",
          "type": "uint256"
        }
      ],
      "stateMutability": "pure",
      "type": "function"
    },
    {
      "inputs": [
        {
          "internalType": "uint256",
          "name": "proposalId",
          "type": "uint256"
        }
      ],
      "name": "proposalVotes",
      "outputs": [
        {
          "internalType": "uint256",
          "name": "againstVotes",
          "type": "uint256"
        },
        {
          "internalType": "uint256",
          "name": "forVotes",
          "type": "uint256"
        },
        {
          "internalType": "uint256",
          "name": "abstainVotes",
          "type": "uint256"
        }
      ],
      "stateMutability": "view",
      "type": "function"
    },
    {
      "inputs": [
        {
          "internalType": "address[]",
          "name": "targets",
          "type": "address[]"
        },
        {
          "internalType": "uint256[]",
          "name": "values",
          "type": "uint256[]"
        },
        {
          "internalType": "bytes[]",
          "name": "calldatas",
          "type": "bytes[]"
        },
        {
          "internalType": "string",
          "name": "description",
          "type": "string"
        }
      ],
      "name": "propose",
      "outputs": [
        {
          "internalType": "uint256",
          "name": "",
          "type": "uint256"
        }
      ],
      "stateMutability": "nonpayable",
      "type": "function"
    },
    {
      "inputs": [
        {
          "internalType": "address[]",
          "name": "targets",
          "type": "address[]"
        },
        {
          "internalType": "uint256[]",
          "name": "values",
          "type": "uint256[]"
        },
        {
          "internalType": "bytes[]",
          "name": "calldatas",
          "type": "bytes[]"
        },
        {
          "internalType": "bytes32",
          "name": "descriptionHash",
          "type": "bytes32"
        }
      ],
      "name": "queue",
      "outputs": [
        {
          "internalType": "uint256",
          "name": "",
          "type": "uint256"
        }
      ],
      "stateMutability": "nonpayable",
      "type": "function"
    },
    {
      "inputs": [
        {
          "internalType": "uint256",
          "name": "timepoint",
          "type": "uint256"
        }
      ],
      "name": "quorum",
      "outputs": [
        {
          "internalType": "uint256",
          "name": "",
          "type": "uint256"
        }
      ],
      "stateMutability": "view",
      "type": "function"
    },
    {
      "inputs": [],
      "name": "quorumDenominator",
      "outputs": [
        {
          "internalType": "uint256",
          "name": "",
          "type": "uint256"
        }
      ],
      "stateMutability": "view",
      "type": "function"
    },
    {
      "inputs": [
        {
          "internalType": "uint256",
          "name": "timepoint",
          "type": "uint256"
        }
      ],
      "name": "quorumNumerator",
      "outputs": [
        {
          "internalType": "uint256",
          "name": "",
          "type": "uint256"
        }
      ],
      "stateMutability": "view",
      "type": "function"
    },
    {
      "inputs": [],
      "name": "quorumNumerator",
      "outputs": [
        {
          "internalType": "uint256",
          "name": "",
          "type": "uint256"
        }
      ],
      "stateMutability": "view",
      "type": "function"
    },
    {
      "inputs": [
        {
          "internalType": "address",
          "name": "target",
          "type": "address"
        },
        {
          "internalType": "uint256",
          "name": "value",
          "type": "uint256"
        },
        {
          "internalType": "bytes",
          "name": "data",
          "type": "bytes"
        }
      ],
      "name": "relay",
      "outputs": [],
      "stateMutability": "payable",
      "type": "function"
    },
    {
      "inputs": [
        {
          "internalType": "uint256",
          "name": "proposalId",
          "type": "uint256"
        }
      ],
      "name": "state",
      "outputs": [
        {
          "internalType": "enum IGovernor.ProposalState",
          "name": "",
          "type": "uint8"
        }
      ],
      "stateMutability": "view",
      "type": "function"
    },
    {
      "inputs": [
        {
          "internalType": "bytes4",
          "name": "interfaceId",
          "type": "bytes4"
        }
      ],
      "name": "supportsInterface",
      "outputs": [
        {
          "internalType": "bool",
          "name": "",
          "type": "bool"
        }
      ],
      "stateMutability": "view",
      "type": "function"
    },
    {
      "inputs": [],
      "name": "timelock",
      "outputs": [
        {
          "internalType": "address",
          "name": "",
          "type": "address"
        }
      ],
      "stateMutability": "view",
      "type": "function"
    },
    {
      "inputs": [],
      "name": "token",
      "outputs": [
        {
          "internalType": "contract IERC5805",
          "name": "",
          "type": "address"
        }
      ],
      "stateMutability": "view",
      "type": "function"
    },
    {
      "inputs": [
        {
          "internalType": "uint256",
          "name": "newQuorumNumerator",
          "type": "uint256"
        }
      ],
      "name": "updateQuorumNumerator",
      "outputs": [],
      "stateMutability": "nonpayable",
      "type": "function"
    },
    {
      "inputs": [
        {
          "internalType": "contract TimelockController",
          "name": "newTimelock",
          "type": "address"
        }
      ],
      "name": "updateTimelock",
      "outputs": [],
      "stateMutability": "nonpayable",
      "type": "function"
    },
    {
      "inputs": [],
      "name": "version",
      "outputs": [
        {
          "internalType": "string",
          "name": "",
          "type": "string"
        }
      ],
      "stateMutability": "view",
      "type": "function"
    },
    {
      "inputs": [],
      "name": "votingDelay",
      "outputs": [
        {
          "internalType": "uint256",
          "name": "",
          "type": "uint256"
        }
      ],
      "stateMutability": "pure",
      "type": "function"
    },
    {
      "inputs": [],
      "name": "votingPeriod",
      "outputs": [
        {
          "internalType": "uint256",
          "name": "",
          "type": "uint256"
        }
      ],
      "stateMutability": "pure",
      "type": "function"
    },
    {
      "stateMutability": "payable",
      "type": "receive"
    }
  ],
  "bytecode": "0x6101806040523480156200001257600080fd5b5060405162004d3d38038062004d3d83398101604081905262000035916200060c565b806004836040518060400160405280600a81526020016926bca3b7bb32b93737b960b11b815250806200006d6200015f60201b60201c565b6200007a8260006200017a565b610120526200008b8160016200017a565b61014052815160208084019190912060e052815190820120610100524660a0526200011960e05161010051604080517f8b73c3c69bb8fe3d512ecc4cf759cc79239f7b179b0ffacaa9a75d522b39400f60208201529081019290925260608201524660808201523060a082015260009060c00160405160208183030381529060405280519060200120905090565b60805250503060c0526003620001308282620006f0565b50506001600160a01b0316610160526200014a81620001b3565b50620001568162000257565b5050506200087d565b6040805180820190915260018152603160f81b602082015290565b60006020835110156200019a576200019283620002c0565b9050620001ad565b81620001a78482620006f0565b5060ff90505b92915050565b606480821115620001e65760405163243e544560e01b815260048101839052602481018290526044015b60405180910390fd5b6000620001f262000303565b905062000217620002026200031f565b6200020d85620003a1565b60089190620003db565b505060408051828152602081018590527f0553476bf02ef2726e8ce5ced78d63e26e602e4a2257b1f559418e24b4633997910160405180910390a1505050565b600954604080516001600160a01b03928316815291831660208301527f08f74ea46ef7894f65eabfb5e6e695de773a000b47c529ab559178069b226401910160405180910390a1600980546001600160a01b0319166001600160a01b0392909216919091179055565b600080829050601f81511115620002ee578260405163305a27a960e01b8152600401620001dd9190620007bc565b8051620002fb826200080c565b179392505050565b6000620003116008620003f8565b6001600160d01b0316905090565b60006200032c6101605190565b6001600160a01b03166391ddadf46040518163ffffffff1660e01b8152600401602060405180830381865afa92505050801562000388575060408051601f3d908101601f19168201909252620003859181019062000831565b60015b6200039c576200039762000448565b905090565b919050565b60006001600160d01b03821115620003d7576040516306dfcc6560e41b815260d0600482015260248101839052604401620001dd565b5090565b600080620003eb85858562000455565b915091505b935093915050565b805460009080156200043e576200042483620004166001846200085b565b600091825260209091200190565b54660100000000000090046001600160d01b031662000441565b60005b9392505050565b60006200039743620005be565b8254600090819080156200055f5760006200047787620004166001856200085b565b805490915065ffffffffffff80821691660100000000000090046001600160d01b0316908816821115620004be57604051632520601d60e01b815260040160405180910390fd5b8765ffffffffffff168265ffffffffffff1603620004fc57825465ffffffffffff1666010000000000006001600160d01b0389160217835562000550565b6040805180820190915265ffffffffffff808a1682526001600160d01b03808a1660208085019182528d54600181018f5560008f815291909120945191519092166601000000000000029216919091179101555b9450859350620003f092505050565b50506040805180820190915265ffffffffffff80851682526001600160d01b0380851660208085019182528854600181018a5560008a8152918220955192519093166601000000000000029190931617920191909155905081620003f0565b600065ffffffffffff821115620003d7576040516306dfcc6560e41b81526030600482015260248101839052604401620001dd565b6001600160a01b03811681146200060957600080fd5b50565b600080604083850312156200062057600080fd5b82516200062d81620005f3565b60208401519092506200064081620005f3565b809150509250929050565b634e487b7160e01b600052604160045260246000fd5b600181811c908216806200067657607f821691505b6020821081036200069757634e487b7160e01b600052602260045260246000fd5b50919050565b601f821115620006eb57600081815260208120601f850160051c81016020861015620006c65750805b601f850160051c820191505b81811015620006e757828155600101620006d2565b5050505b505050565b81516001600160401b038111156200070c576200070c6200064b565b62000724816200071d845462000661565b846200069d565b602080601f8311600181146200075c5760008415620007435750858301515b600019600386901b1c1916600185901b178555620006e7565b600085815260208120601f198616915b828110156200078d578886015182559484019460019091019084016200076c565b5085821015620007ac5787850151600019600388901b60f8161c191681555b5050505050600190811b01905550565b600060208083528351808285015260005b81811015620007eb57858101830151858201604001528201620007cd565b506000604082860101526040601f19601f8301168501019250505092915050565b80516020808301519190811015620006975760001960209190910360031b1b16919050565b6000602082840312156200084457600080fd5b815165ffffffffffff811681146200044157600080fd5b81810381811115620001ad57634e487b7160e01b600052601160045260246000fd5b60805160a05160c05160e0516101005161012051610140516101605161443e620008ff600039600081816109dd01528181610ed5015281816113de015281816116c901526121ba01526000612185015260006121580152600061298f01526000612967015260006128c2015260006128ec01526000612916015261443e6000f3fe6080604052600436106102f65760003560e01c80637d5e81e21161018f578063b58131b0116100e1578063dd4e2ba51161008a578063f23a6e6111610064578063f23a6e611461098e578063f8ce560a146109ae578063fc0c546a146109ce57600080fd5b8063dd4e2ba5146108f4578063deaaa7cc1461093a578063eb9019d41461096e57600080fd5b8063c28bc2fa116100bb578063c28bc2fa146108a3578063c59057e4146108b6578063d33219b4146108d657600080fd5b8063b58131b01461084f578063bc197c8114610863578063c01f9e371461088357600080fd5b806397c3d33411610143578063a890c9101161011d578063a890c910146107d7578063a9a95294146107f7578063ab58fb8e1461081757600080fd5b806397c3d334146103675780639a802a6d146107a2578063a7713a70146107c257600080fd5b806384b0196e1161017457806384b0196e1461072e5780638ff262e31461075657806391ddadf41461077657600080fd5b80637d5e81e2146106d85780637ecebe00146106f857600080fd5b80633e4f49e61161024857806354fd4d50116101fc5780635f398a14116101d65780635f398a141461067857806360c4247f146106985780637b3c71d3146106b857600080fd5b806354fd4d50146105f257806356781388146106385780635b8d0e0d1461065857600080fd5b8063452115d61161022d578063452115d6146105685780634bf5d7e914610588578063544ffc9c1461059d57600080fd5b80633e4f49e6146104f1578063438596321461051e57600080fd5b8063150b7a02116102aa5780632d63f693116102845780632d63f693146104815780632fe3e261146104bd5780633932abb11461036757600080fd5b8063150b7a0214610415578063160cbed71461044e5780632656227d1461046e57600080fd5b806306f3f9e6116102db57806306f3f9e61461038557806306fdde03146103a5578063143489d0146103c757600080fd5b806301ffc9a71461033257806302a251a31461036757600080fd5b3661032d5730610304610a01565b6001600160a01b03161461032b57604051637485328f60e11b815260040160405180910390fd5b005b600080fd5b34801561033e57600080fd5b5061035261034d3660046133bb565b610a1a565b60405190151581526020015b60405180910390f35b34801561037357600080fd5b5060645b60405190815260200161035e565b34801561039157600080fd5b5061032b6103a03660046133e5565b610ab7565b3480156103b157600080fd5b506103ba610acb565b60405161035e919061344e565b3480156103d357600080fd5b506103fd6103e23660046133e5565b6000908152600460205260409020546001600160a01b031690565b6040516001600160a01b03909116815260200161035e565b34801561042157600080fd5b50610435610430366004613543565b610b5d565b6040516001600160e01b0319909116815260200161035e565b34801561045a57600080fd5b5061037761046936600461371d565b610bb9565b61037761047c36600461371d565b610ca1565b34801561048d57600080fd5b5061037761049c3660046133e5565b600090815260046020526040902054600160a01b900465ffffffffffff1690565b3480156104c957600080fd5b506103777f3e83946653575f9a39005e1545185629e92736b7528ab20ca3816f315424a81181565b3480156104fd57600080fd5b5061051161050c3660046133e5565b610e39565b60405161035e91906137e5565b34801561052a57600080fd5b506103526105393660046137f3565b60008281526007602090815260408083206001600160a01b038516845260030190915290205460ff1692915050565b34801561057457600080fd5b5061037761058336600461371d565b610e44565b34801561059457600080fd5b506103ba610ed1565b3480156105a957600080fd5b506105d76105b83660046133e5565b6000908152600760205260409020805460018201546002909201549092565b6040805193845260208401929092529082015260600161035e565b3480156105fe57600080fd5b5060408051808201909152600181527f310000000000000000000000000000000000000000000000000000000000000060208201526103ba565b34801561064457600080fd5b50610377610653366004613834565b610f93565b34801561066457600080fd5b506103776106733660046138a9565b610fbc565b34801561068457600080fd5b50610377610693366004613964565b61111b565b3480156106a457600080fd5b506103776106b33660046133e5565b611170565b3480156106c457600080fd5b506103776106d33660046139e8565b611201565b3480156106e457600080fd5b506103776106f3366004613a42565b611249565b34801561070457600080fd5b50610377610713366004613af7565b6001600160a01b031660009081526002602052604090205490565b34801561073a57600080fd5b506107436112a6565b60405161035e9796959493929190613b4f565b34801561076257600080fd5b50610377610771366004613bd9565b611308565b34801561078257600080fd5b5061078b6113da565b60405165ffffffffffff909116815260200161035e565b3480156107ae57600080fd5b506103776107bd366004613c2b565b611462565b3480156107ce57600080fd5b50610377611479565b3480156107e357600080fd5b5061032b6107f2366004613af7565b611493565b34801561080357600080fd5b506103526108123660046133e5565b6114a4565b34801561082357600080fd5b506103776108323660046133e5565b60009081526004602052604090206001015465ffffffffffff1690565b34801561085b57600080fd5b506000610377565b34801561086f57600080fd5b5061043561087e366004613c84565b6114ad565b34801561088f57600080fd5b5061037761089e3660046133e5565b61150a565b61032b6108b1366004613d18565b61154d565b3480156108c257600080fd5b506103776108d136600461371d565b6115cd565b3480156108e257600080fd5b506009546001600160a01b03166103fd565b34801561090057600080fd5b506040805180820190915260208082527f737570706f72743d627261766f2671756f72756d3d666f722c6162737461696e908201526103ba565b34801561094657600080fd5b506103777ff2aad550cf55f045cb27e9c559f9889fdfb6e6cdaa032301d6ea397784ae51d781565b34801561097a57600080fd5b50610377610989366004613d5c565b611607565b34801561099a57600080fd5b506104356109a9366004613d88565b611628565b3480156109ba57600080fd5b506103776109c93660046133e5565b611685565b3480156109da57600080fd5b507f00000000000000000000000000000000000000000000000000000000000000006103fd565b6000610a156009546001600160a01b031690565b905090565b60006001600160e01b031982167f65455a86000000000000000000000000000000000000000000000000000000001480610a7d57506001600160e01b031982167f4e2312e000000000000000000000000000000000000000000000000000000000145b80610ab157507f01ffc9a7000000000000000000000000000000000000000000000000000000006001600160e01b03198316145b92915050565b610abf611748565b610ac8816117db565b50565b606060038054610ada90613df1565b80601f0160208091040260200160405190810160405280929190818152602001828054610b0690613df1565b8015610b535780601f10610b2857610100808354040283529160200191610b53565b820191906000526020600020905b815481529060010190602001808311610b3657829003601f168201915b5050505050905090565b600030610b68610a01565b6001600160a01b031614610b8f57604051637485328f60e11b815260040160405180910390fd5b507f150b7a0200000000000000000000000000000000000000000000000000000000949350505050565b600080610bc8868686866115cd565b9050610bdd81610bd8600461188a565b6118ad565b506000610bed82888888886118ec565b905065ffffffffffff811615610c6557600082815260046020908152604091829020600101805465ffffffffffff191665ffffffffffff85169081179091558251858152918201527f9a2e42fd6722813d69113e7d0079d3d940171428df7373df9c7f7617cfda2892910160405180910390a1610c97565b6040517f90884a4600000000000000000000000000000000000000000000000000000000815260040160405180910390fd5b5095945050505050565b600080610cb0868686866115cd565b9050610cd081610cc0600561188a565b610cca600461188a565b176118ad565b50600081815260046020526040902080547fff00ffffffffffffffffffffffffffffffffffffffffffffffffffffffffffff16600160f01b17905530610d14610a01565b6001600160a01b031614610da65760005b8651811015610da457306001600160a01b0316878281518110610d4a57610d4a613e2b565b60200260200101516001600160a01b031603610d9457610d94858281518110610d7557610d75613e2b565b60200260200101518051906020012060056118fb90919063ffffffff16565b610d9d81613e57565b9050610d25565b505b610db3818787878761196f565b30610dbc610a01565b6001600160a01b031614158015610df157506005546fffffffffffffffffffffffffffffffff808216600160801b9092041614155b15610dfc5760006005555b6040518181527f712ae1383f79ac853f8d882153778e0260ef8f03b504e2866e0593e04d2b291f906020015b60405180910390a195945050505050565b6000610ab182611983565b600080610e53868686866115cd565b9050610e6381610bd8600061188a565b506000818152600460205260409020546001600160a01b03163314610ebb576040517f233d98e30000000000000000000000000000000000000000000000000000000081523360048201526024015b60405180910390fd5b610ec786868686611af4565b9695505050505050565b60607f00000000000000000000000000000000000000000000000000000000000000006001600160a01b0316634bf5d7e96040518163ffffffff1660e01b8152600401600060405180830381865afa925050508015610f5257506040513d6000823e601f3d908101601f19168201604052610f4f9190810190613e70565b60015b610f8e575060408051808201909152601d81527f6d6f64653d626c6f636b6e756d6265722666726f6d3d64656661756c74000000602082015290565b919050565b600080339050610fb484828560405180602001604052806000815250611b0b565b949350505050565b60008061109f876110997f3e83946653575f9a39005e1545185629e92736b7528ab20ca3816f315424a8118c8c8c6110118e6001600160a01b0316600090815260026020526040902080546001810190915590565b8d8d604051611021929190613ede565b60405180910390208c8051906020012060405160200161107e9796959493929190968752602087019590955260ff9390931660408601526001600160a01b03919091166060850152608084015260a083015260c082015260e00190565b60405160208183030381529060405280519060200120611b2e565b85611b76565b9050806110ca576040516394ab6c0760e01b81526001600160a01b0388166004820152602401610eb2565b61110e89888a89898080601f0160208091040260200160405190810160405280939291908181526020018383808284376000920191909152508b9250611bea915050565b9998505050505050505050565b60008033905061116587828888888080601f0160208091040260200160405190810160405280939291908181526020018383808284376000920191909152508a9250611bea915050565b979650505050505050565b600880546000918290611184600184613eee565b8154811061119457611194613e2b565b6000918252602090912001805490915065ffffffffffff811690660100000000000090046001600160d01b03168582116111da576001600160d01b031695945050505050565b6111ee6111e687611ce1565b600890611d18565b6001600160d01b03169695505050505050565b600080339050610ec786828787878080601f016020809104026020016040519081016040528093929190818152602001838380828437600092019190915250611b0b92505050565b6000336112568184611dd0565b611297576040517fd9b395570000000000000000000000000000000000000000000000000000000081526001600160a01b0382166004820152602401610eb2565b60006111658787878786611ef7565b6000606080600080600060606112ba612151565b6112c261217e565b604080516000808252602082019092527f0f000000000000000000000000000000000000000000000000000000000000009b939a50919850469750309650945092509050565b600080611394846110997ff2aad550cf55f045cb27e9c559f9889fdfb6e6cdaa032301d6ea397784ae51d789898961135d8b6001600160a01b0316600090815260026020526040902080546001810190915590565b60408051602081019690965285019390935260ff90911660608401526001600160a01b0316608083015260a082015260c00161107e565b9050806113bf576040516394ab6c0760e01b81526001600160a01b0385166004820152602401610eb2565b610ec786858760405180602001604052806000815250611b0b565b60007f00000000000000000000000000000000000000000000000000000000000000006001600160a01b03166391ddadf46040518163ffffffff1660e01b8152600401602060405180830381865afa925050508015611456575060408051601f3d908101601f1916820190925261145391810190613f08565b60015b610f8e57610a156121ab565b600061146f8484846121b6565b90505b9392505050565b60006114856008612265565b6001600160d01b0316905090565b61149b611748565b610ac8816122a1565b60006001610ab1565b6000306114b8610a01565b6001600160a01b0316146114df57604051637485328f60e11b815260040160405180910390fd5b507fbc197c810000000000000000000000000000000000000000000000000000000095945050505050565b60008181526004602052604081205461153f90600160d01b810463ffffffff1690600160a01b900465ffffffffffff16613f30565b65ffffffffffff1692915050565b611555611748565b600080856001600160a01b0316858585604051611573929190613ede565b60006040518083038185875af1925050503d80600081146115b0576040519150601f19603f3d011682016040523d82523d6000602084013e6115b5565b606091505b50915091506115c48282612317565b50505050505050565b6000848484846040516020016115e69493929190613fdd565b60408051601f19818403018152919052805160209091012095945050505050565b6000611472838361162360408051602081019091526000815290565b6121b6565b600030611633610a01565b6001600160a01b03161461165a57604051637485328f60e11b815260040160405180910390fd5b507ff23a6e610000000000000000000000000000000000000000000000000000000095945050505050565b6000606461169283611170565b6040517f8e539e8c000000000000000000000000000000000000000000000000000000008152600481018590526001600160a01b037f00000000000000000000000000000000000000000000000000000000000000001690638e539e8c90602401602060405180830381865afa158015611710573d6000803e3d6000fd5b505050506040513d601f19601f820116820180604052508101906117349190614028565b61173e9190614041565b610ab1919061406e565b33611751610a01565b6001600160a01b031614611793576040517f47096e47000000000000000000000000000000000000000000000000000000008152336004820152602401610eb2565b3061179c610a01565b6001600160a01b0316146117d957600080366040516117bc929190613ede565b604051809103902090505b806117d26005612333565b036117c757505b565b606480821115611821576040517f243e54450000000000000000000000000000000000000000000000000000000081526004810183905260248101829052604401610eb2565b600061182b611479565b905061184a6118386113da565b611841856123c3565b600891906123f7565b505060408051828152602081018590527f0553476bf02ef2726e8ce5ced78d63e26e602e4a2257b1f559418e24b4633997910160405180910390a1505050565b600081600781111561189e5761189e6137ad565b600160ff919091161b92915050565b6000806118b984610e39565b90506000836118c78361188a565b1603611472578381846040516331b75e4d60e01b8152600401610eb293929190614090565b6000610ec78686868686612412565b81546fffffffffffffffffffffffffffffffff600160801b8204811691811660018301909116036119305761193060416125ef565b6fffffffffffffffffffffffffffffffff808216600090815260018086016020526040909120939093558354919092018216600160801b029116179055565b61197c8585858585612601565b5050505050565b60008061198f83612697565b905060058160078111156119a5576119a56137ad565b146119b05792915050565b6000838152600a6020526040908190205460095491517f584b153e0000000000000000000000000000000000000000000000000000000081526004810182905290916001600160a01b03169063584b153e90602401602060405180830381865afa158015611a22573d6000803e3d6000fd5b505050506040513d601f19601f82011682018060405250810190611a4691906140b2565b15611a55575060059392505050565b6009546040517f2ab0f529000000000000000000000000000000000000000000000000000000008152600481018390526001600160a01b0390911690632ab0f52990602401602060405180830381865afa158015611ab7573d6000803e3d6000fd5b505050506040513d601f19601f82011682018060405250810190611adb91906140b2565b15611aea575060079392505050565b5060029392505050565b6000611b02858585856127fd565b95945050505050565b6000611b0285858585611b2960408051602081019091526000815290565b611bea565b6000610ab1611b3b6128b5565b836040517f19010000000000000000000000000000000000000000000000000000000000008152600281019290925260228201526042902090565b6000836001600160a01b03163b600003611bd857600080611b9785856129e0565b5090925090506000816003811115611bb157611bb16137ad565b148015611bcf5750856001600160a01b0316826001600160a01b0316145b92505050611472565b611be3848484612a2d565b9050611472565b6000611bfa86610bd8600161188a565b50600086815260046020526040812054611c25908790600160a01b900465ffffffffffff16856121b6565b90506000611c368888888588612b1d565b90508351600003611c8d57866001600160a01b03167fb8e138887d0aa13bab447e82de9d5c1777041ecd21ca36ba824ff1e6c07ddda489888489604051611c8094939291906140d4565b60405180910390a2611165565b866001600160a01b03167fe2babfbac5889a709b63bb7f598b324e08bc5a4fb9ec647fb3cbc9ec07eb87128988848989604051611cce9594939291906140fc565b60405180910390a2979650505050505050565b600065ffffffffffff821115611d14576040516306dfcc6560e41b81526030600482015260248101839052604401610eb2565b5090565b815460009081816005811115611d77576000611d3384612c52565b611d3d9085613eee565b60008881526020902090915081015465ffffffffffff9081169087161015611d6757809150611d75565b611d72816001614136565b92505b505b6000611d8587878585612dab565b90508015611dc357611daa87611d9c600184613eee565b600091825260209091200190565b54660100000000000090046001600160d01b0316611165565b6000979650505050505050565b80516000906034811015611de8576001915050610ab1565b828101601319015173ffffffffffffffffffffffffffffffffffffffff1981167f2370726f706f7365723d3078000000000000000000000000000000000000000014611e3957600192505050610ab1565b600080611e47602885613eee565b90505b83811015611ed657600080611e96888481518110611e6a57611e6a613e2b565b01602001517fff0000000000000000000000000000000000000000000000000000000000000016612e0d565b9150915081611eae5760019650505050505050610ab1565b8060ff166004856001600160a01b0316901b179350505080611ecf90613e57565b9050611e4a565b50856001600160a01b0316816001600160a01b031614935050505092915050565b6000611f0c86868686805190602001206115cd565b905084518651141580611f2157508351865114155b80611f2b57508551155b15611f79578551845186516040517f447b05d0000000000000000000000000000000000000000000000000000000008152600481019390935260248301919091526044820152606401610eb2565b600081815260046020526040902054600160a01b900465ffffffffffff1615611fc45780611fa682610e39565b6040516331b75e4d60e01b8152610eb2929190600090600401614090565b60006064611fd06113da565b65ffffffffffff16611fe29190614136565b9050600060646000848152600460205260409020805473ffffffffffffffffffffffffffffffffffffffff19166001600160a01b03871617815590915061202883611ce1565b815465ffffffffffff91909116600160a01b027fffffffffffff000000000000ffffffffffffffffffffffffffffffffffffffff90911617815561206b82612e9f565b815463ffffffff91909116600160d01b027fffff00000000ffffffffffffffffffffffffffffffffffffffffffffffffffff90911617815588517f7d84a6263ae0d98d3329bd7b46bb4e8d6f98cd35a7adb45c274c8b7fd5ebd5e090859087908c908c9067ffffffffffffffff8111156120e7576120e7613476565b60405190808252806020026020018201604052801561211a57816020015b60608152602001906001900390816121055790505b508c896121278a82614136565b8e60405161213d99989796959493929190614149565b60405180910390a150505095945050505050565b6060610a157f00000000000000000000000000000000000000000000000000000000000000006000612ed0565b6060610a157f00000000000000000000000000000000000000000000000000000000000000006001612ed0565b6000610a1543611ce1565b60007f00000000000000000000000000000000000000000000000000000000000000006040517f3a46b1a80000000000000000000000000000000000000000000000000000000081526001600160a01b038681166004830152602482018690529190911690633a46b1a890604401602060405180830381865afa158015612241573d6000803e3d6000fd5b505050506040513d601f19601f8201168201806040525081019061146f9190614028565b805460009080156122985761227f83611d9c600184613eee565b54660100000000000090046001600160d01b0316611472565b60009392505050565b600954604080516001600160a01b03928316815291831660208301527f08f74ea46ef7894f65eabfb5e6e695de773a000b47c529ab559178069b226401910160405180910390a16009805473ffffffffffffffffffffffffffffffffffffffff19166001600160a01b0392909216919091179055565b60608261232c5761232782612f7b565b610ab1565b5080610ab1565b80546000906fffffffffffffffffffffffffffffffff80821691600160801b90041681036123655761236560316125ef565b6fffffffffffffffffffffffffffffffff8181166000908152600185810160205260408220805492905585547fffffffffffffffffffffffffffffffff00000000000000000000000000000000169301909116919091179092555090565b60006001600160d01b03821115611d14576040516306dfcc6560e41b815260d0600482015260248101839052604401610eb2565b600080612405858585612fbd565b915091505b935093915050565b600080600960009054906101000a90046001600160a01b03166001600160a01b031663f27a0c926040518163ffffffff1660e01b8152600401602060405180830381865afa158015612468573d6000803e3d6000fd5b505050506040513d601f19601f8201168201806040525081019061248c9190614028565b905060003060601b6bffffffffffffffffffffffff191684186009546040517fb1c5f4270000000000000000000000000000000000000000000000000000000081529192506001600160a01b03169063b1c5f427906124f8908a908a908a906000908890600401614221565b602060405180830381865afa158015612515573d6000803e3d6000fd5b505050506040513d601f19601f820116820180604052508101906125399190614028565b6000898152600a60205260408082209290925560095491517f8f2a0bb00000000000000000000000000000000000000000000000000000000081526001600160a01b0390921691638f2a0bb09161259d918b918b918b919088908a9060040161426f565b600060405180830381600087803b1580156125b757600080fd5b505af11580156125cb573d6000803e3d6000fd5b505050506125e382426125de9190614136565b611ce1565b98975050505050505050565b634e487b71600052806020526024601cfd5b6009546001600160a01b031663e38335e53486868660003060601b6bffffffffffffffffffffffff191688186040518763ffffffff1660e01b815260040161264d959493929190614221565b6000604051808303818588803b15801561266657600080fd5b505af115801561267a573d6000803e3d6000fd5b50505060009687525050600a602052505060408320929092555050565b6000818152600460205260408120805460ff600160f01b8204811691600160f81b90041681156126cc57506007949350505050565b80156126dd57506002949350505050565b600085815260046020526040812054600160a01b900465ffffffffffff1690508060000361273a576040517f6ad0607500000000000000000000000000000000000000000000000000000000815260048101879052602401610eb2565b60006127446113da565b65ffffffffffff169050808210612762575060009695505050505050565b600061276d8861150a565b905081811061278457506001979650505050505050565b61278d88613136565b15806127ad57506000888152600760205260409020805460019091015411155b156127c057506003979650505050505050565b60008881526004602052604090206001015465ffffffffffff166000036127ef57506004979650505050505050565b506005979650505050505050565b60008061280c86868686613188565b6000818152600a60205260409020549091508015610c97576009546040517fc4d252f5000000000000000000000000000000000000000000000000000000008152600481018390526001600160a01b039091169063c4d252f590602401600060405180830381600087803b15801561288357600080fd5b505af1158015612897573d6000803e3d6000fd5b5050506000838152600a602052604081205550509050949350505050565b6000306001600160a01b037f00000000000000000000000000000000000000000000000000000000000000001614801561290e57507f000000000000000000000000000000000000000000000000000000000000000046145b1561293857507f000000000000000000000000000000000000000000000000000000000000000090565b610a15604080517f8b73c3c69bb8fe3d512ecc4cf759cc79239f7b179b0ffacaa9a75d522b39400f60208201527f0000000000000000000000000000000000000000000000000000000000000000918101919091527f000000000000000000000000000000000000000000000000000000000000000060608201524660808201523060a082015260009060c00160405160208183030381529060405280519060200120905090565b60008060008351604103612a1a5760208401516040850151606086015160001a612a0c88828585613251565b955095509550505050612a26565b50508151600091506002905b9250925092565b6000806000856001600160a01b03168585604051602401612a4f9291906142c7565b60408051601f198184030181529181526020820180517bffffffffffffffffffffffffffffffffffffffffffffffffffffffff16630b135d3f60e11b17905251612a9991906142e0565b600060405180830381855afa9150503d8060008114612ad4576040519150601f19603f3d011682016040523d82523d6000602084013e612ad9565b606091505b5091509150818015612aed57506020815110155b8015610ec757508051630b135d3f60e11b90612b129083016020908101908401614028565b149695505050505050565b60008581526007602090815260408083206001600160a01b03881684526003810190925282205460ff1615612b89576040517f71c6af490000000000000000000000000000000000000000000000000000000081526001600160a01b0387166004820152602401610eb2565b6001600160a01b03861660009081526003820160205260409020805460ff1916600117905560ff8516612bd55783816000016000828254612bca9190614136565b90915550612c479050565b60001960ff861601612bf55783816001016000828254612bca9190614136565b60011960ff861601612c155783816002016000828254612bca9190614136565b6040517f06b337c200000000000000000000000000000000000000000000000000000000815260040160405180910390fd5b509195945050505050565b600060018211612c60575090565b816001600160801b8210612c795760809190911c9060401b5b680100000000000000008210612c945760409190911c9060201b5b6401000000008210612cab5760209190911c9060101b5b620100008210612cc05760109190911c9060081b5b6101008210612cd45760089190911c9060041b5b60108210612ce75760049190911c9060021b5b60048210612cf35760011b5b600302600190811c90818581612d0b57612d0b614058565b048201901c90506001818581612d2357612d23614058565b048201901c90506001818581612d3b57612d3b614058565b048201901c90506001818581612d5357612d53614058565b048201901c90506001818581612d6b57612d6b614058565b048201901c90506001818581612d8357612d83614058565b048201901c9050612da2818581612d9c57612d9c614058565b04821190565b90039392505050565b60005b81831015612e05576000612dc28484613320565b60008781526020902090915065ffffffffffff86169082015465ffffffffffff161115612df157809250612dff565b612dfc816001614136565b93505b50612dae565b509392505050565b60008060f883901c602f81118015612e285750603a8160ff16105b15612e3d57600194602f199091019350915050565b8060ff166040108015612e53575060478160ff16105b15612e68576001946036199091019350915050565b8060ff166060108015612e7e575060678160ff16105b15612e93576001946056199091019350915050565b50600093849350915050565b600063ffffffff821115611d14576040516306dfcc6560e41b81526020600482015260248101839052604401610eb2565b606060ff8314612eea57612ee38361333b565b9050610ab1565b818054612ef690613df1565b80601f0160208091040260200160405190810160405280929190818152602001828054612f2290613df1565b8015612f6f5780601f10612f4457610100808354040283529160200191612f6f565b820191906000526020600020905b815481529060010190602001808311612f5257829003601f168201915b50505050509050610ab1565b805115612f8b5780518082602001fd5b6040517fd6bda27500000000000000000000000000000000000000000000000000000000815260040160405180910390fd5b8254600090819080156130d8576000612fdb87611d9c600185613eee565b805490915065ffffffffffff80821691660100000000000090046001600160d01b031690881682111561303a576040517f2520601d00000000000000000000000000000000000000000000000000000000815260040160405180910390fd5b8765ffffffffffff168265ffffffffffff160361307657825465ffffffffffff1666010000000000006001600160d01b038916021783556130ca565b6040805180820190915265ffffffffffff808a1682526001600160d01b03808a1660208085019182528d54600181018f5560008f815291909120945191519092166601000000000000029216919091179101555b945085935061240a92505050565b50506040805180820190915265ffffffffffff80851682526001600160d01b0380851660208085019182528854600181018a5560008a815291822095519251909316660100000000000002919093161792019190915590508161240a565b6000818152600760205260408120600281015460018201546131589190614136565b60008481526004602052604090205461317f90600160a01b900465ffffffffffff16611685565b11159392505050565b600080613197868686866115cd565b90506131e5816131a7600761188a565b6131b1600661188a565b6131bb600261188a565b60016131c86007826142fc565b6131d39060026143f9565b6131dd9190613eee565b1818186118ad565b506000818152600460205260409081902080547effffffffffffffffffffffffffffffffffffffffffffffffffffffffffffff16600160f81b179055517f789cf55be980739dad1d0699b93b58e806b51c9d96619bfa8fe0a28abaa7b30c90610e289083815260200190565b600080807f7fffffffffffffffffffffffffffffff5d576e7357a4501ddfe92f46681b20a084111561328c5750600091506003905082613316565b604080516000808252602082018084528a905260ff891692820192909252606081018790526080810186905260019060a0016020604051602081039080840390855afa1580156132e0573d6000803e3d6000fd5b5050604051601f1901519150506001600160a01b03811661330c57506000925060019150829050613316565b9250600091508190505b9450945094915050565b600061332f600284841861406e565b61147290848416614136565b606060006133488361337a565b604080516020808252818301909252919250600091906020820181803683375050509182525060208101929092525090565b600060ff8216601f811115610ab1576040517fb3512b0c00000000000000000000000000000000000000000000000000000000815260040160405180910390fd5b6000602082840312156133cd57600080fd5b81356001600160e01b03198116811461147257600080fd5b6000602082840312156133f757600080fd5b5035919050565b60005b83811015613419578181015183820152602001613401565b50506000910152565b6000815180845261343a8160208601602086016133fe565b601f01601f19169290920160200192915050565b6020815260006114726020830184613422565b6001600160a01b0381168114610ac857600080fd5b634e487b7160e01b600052604160045260246000fd5b604051601f8201601f1916810167ffffffffffffffff811182821017156134b5576134b5613476565b604052919050565b600067ffffffffffffffff8211156134d7576134d7613476565b50601f01601f191660200190565b60006134f86134f3846134bd565b61348c565b905082815283838301111561350c57600080fd5b828260208301376000602084830101529392505050565b600082601f83011261353457600080fd5b611472838335602085016134e5565b6000806000806080858703121561355957600080fd5b843561356481613461565b9350602085013561357481613461565b925060408501359150606085013567ffffffffffffffff81111561359757600080fd5b6135a387828801613523565b91505092959194509250565b600067ffffffffffffffff8211156135c9576135c9613476565b5060051b60200190565b600082601f8301126135e457600080fd5b813560206135f46134f3836135af565b82815260059290921b8401810191818101908684111561361357600080fd5b8286015b8481101561363757803561362a81613461565b8352918301918301613617565b509695505050505050565b600082601f83011261365357600080fd5b813560206136636134f3836135af565b82815260059290921b8401810191818101908684111561368257600080fd5b8286015b848110156136375780358352918301918301613686565b600082601f8301126136ae57600080fd5b813560206136be6134f3836135af565b82815260059290921b840181019181810190868411156136dd57600080fd5b8286015b8481101561363757803567ffffffffffffffff8111156137015760008081fd5b61370f8986838b0101613523565b8452509183019183016136e1565b6000806000806080858703121561373357600080fd5b843567ffffffffffffffff8082111561374b57600080fd5b613757888389016135d3565b9550602087013591508082111561376d57600080fd5b61377988838901613642565b9450604087013591508082111561378f57600080fd5b5061379c8782880161369d565b949793965093946060013593505050565b634e487b7160e01b600052602160045260246000fd5b600881106137e157634e487b7160e01b600052602160045260246000fd5b9052565b60208101610ab182846137c3565b6000806040838503121561380657600080fd5b82359150602083013561381881613461565b809150509250929050565b803560ff81168114610f8e57600080fd5b6000806040838503121561384757600080fd5b8235915061385760208401613823565b90509250929050565b60008083601f84011261387257600080fd5b50813567ffffffffffffffff81111561388a57600080fd5b6020830191508360208285010111156138a257600080fd5b9250929050565b600080600080600080600060c0888a0312156138c457600080fd5b873596506138d460208901613823565b955060408801356138e481613461565b9450606088013567ffffffffffffffff8082111561390157600080fd5b61390d8b838c01613860565b909650945060808a013591508082111561392657600080fd5b6139328b838c01613523565b935060a08a013591508082111561394857600080fd5b506139558a828b01613523565b91505092959891949750929550565b60008060008060006080868803121561397c57600080fd5b8535945061398c60208701613823565b9350604086013567ffffffffffffffff808211156139a957600080fd5b6139b589838a01613860565b909550935060608801359150808211156139ce57600080fd5b506139db88828901613523565b9150509295509295909350565b600080600080606085870312156139fe57600080fd5b84359350613a0e60208601613823565b9250604085013567ffffffffffffffff811115613a2a57600080fd5b613a3687828801613860565b95989497509550505050565b60008060008060808587031215613a5857600080fd5b843567ffffffffffffffff80821115613a7057600080fd5b613a7c888389016135d3565b95506020870135915080821115613a9257600080fd5b613a9e88838901613642565b94506040870135915080821115613ab457600080fd5b613ac08883890161369d565b93506060870135915080821115613ad657600080fd5b508501601f81018713613ae857600080fd5b6135a3878235602084016134e5565b600060208284031215613b0957600080fd5b813561147281613461565b600081518084526020808501945080840160005b83811015613b4457815187529582019590820190600101613b28565b509495945050505050565b7fff000000000000000000000000000000000000000000000000000000000000008816815260e060208201526000613b8a60e0830189613422565b8281036040840152613b9c8189613422565b90508660608401526001600160a01b03861660808401528460a084015282810360c0840152613bcb8185613b14565b9a9950505050505050505050565b60008060008060808587031215613bef57600080fd5b84359350613bff60208601613823565b92506040850135613c0f81613461565b9150606085013567ffffffffffffffff81111561359757600080fd5b600080600060608486031215613c4057600080fd5b8335613c4b81613461565b925060208401359150604084013567ffffffffffffffff811115613c6e57600080fd5b613c7a86828701613523565b9150509250925092565b600080600080600060a08688031215613c9c57600080fd5b8535613ca781613461565b94506020860135613cb781613461565b9350604086013567ffffffffffffffff80821115613cd457600080fd5b613ce089838a01613642565b94506060880135915080821115613cf657600080fd5b613d0289838a01613642565b935060808801359150808211156139ce57600080fd5b60008060008060608587031215613d2e57600080fd5b8435613d3981613461565b935060208501359250604085013567ffffffffffffffff811115613a2a57600080fd5b60008060408385031215613d6f57600080fd5b8235613d7a81613461565b946020939093013593505050565b600080600080600060a08688031215613da057600080fd5b8535613dab81613461565b94506020860135613dbb81613461565b93506040860135925060608601359150608086013567ffffffffffffffff811115613de557600080fd5b6139db88828901613523565b600181811c90821680613e0557607f821691505b602082108103613e2557634e487b7160e01b600052602260045260246000fd5b50919050565b634e487b7160e01b600052603260045260246000fd5b634e487b7160e01b600052601160045260246000fd5b600060018201613e6957613e69613e41565b5060010190565b600060208284031215613e8257600080fd5b815167ffffffffffffffff811115613e9957600080fd5b8201601f81018413613eaa57600080fd5b8051613eb86134f3826134bd565b818152856020838501011115613ecd57600080fd5b611b028260208301602086016133fe565b8183823760009101908152919050565b81810381811115610ab157610ab1613e41565b5092915050565b600060208284031215613f1a57600080fd5b815165ffffffffffff8116811461147257600080fd5b65ffffffffffff818116838216019080821115613f0157613f01613e41565b600081518084526020808501945080840160005b83811015613b445781516001600160a01b031687529582019590820190600101613f63565b600081518084526020808501808196508360051b8101915082860160005b85811015613fd0578284038952613fbe848351613422565b98850198935090840190600101613fa6565b5091979650505050505050565b608081526000613ff06080830187613f4f565b82810360208401526140028187613b14565b905082810360408401526140168186613f88565b91505082606083015295945050505050565b60006020828403121561403a57600080fd5b5051919050565b8082028115828204841417610ab157610ab1613e41565b634e487b7160e01b600052601260045260246000fd5b60008261408b57634e487b7160e01b600052601260045260246000fd5b500490565b838152606081016140a460208301856137c3565b826040830152949350505050565b6000602082840312156140c457600080fd5b8151801515811461147257600080fd5b84815260ff84166020820152826040820152608060608201526000610ec76080830184613422565b85815260ff8516602082015283604082015260a06060820152600061412460a0830185613422565b82810360808401526125e38185613422565b80820180821115610ab157610ab1613e41565b60006101208b835260206001600160a01b038c16818501528160408501526141738285018c613f4f565b91508382036060850152614187828b613b14565b915083820360808501528189518084528284019150828160051b850101838c0160005b838110156141d857601f198784030185526141c6838351613422565b948601949250908501906001016141aa565b505086810360a08801526141ec818c613f88565b9450505050508560c08401528460e08401528281036101008401526142118185613422565b9c9b505050505050505050505050565b60a08152600061423460a0830188613f4f565b82810360208401526142468188613b14565b9050828103604084015261425a8187613f88565b60608401959095525050608001529392505050565b60c08152600061428260c0830189613f4f565b82810360208401526142948189613b14565b905082810360408401526142a88188613f88565b60608401969096525050608081019290925260a0909101529392505050565b82815260406020820152600061146f6040830184613422565b600082516142f28184602087016133fe565b9190910192915050565b60ff8181168382160190811115610ab157610ab1613e41565b600181815b8085111561435057816000190482111561433657614336613e41565b8085161561434357918102915b93841c939080029061431a565b509250929050565b60008261436757506001610ab1565b8161437457506000610ab1565b816001811461438a5760028114614394576143b0565b6001915050610ab1565b60ff8411156143a5576143a5613e41565b50506001821b610ab1565b5060208310610133831016604e8410600b84101617156143d3575081810a610ab1565b6143dd8383614315565b80600019048211156143f1576143f1613e41565b029392505050565b600061147260ff84168361435856fea2646970667358221220f44806f80a0bba0f95adb704987c2f6b4be7e9bbcad66ad798611fd47f0f6f8c64736f6c63430008140033",
  "linkReferences": {},
  "deployedLinkReferences": {}
}